:03000000020640B5
:0C064000787FE4F6D8FD7581080206877B
:1007D700000100000003000000000000000000000E
:1006CC00E47811F208F2087C007DFE7BFF7A077952
:1006DC00D7FE7F1012034B7BFE7A0079001205AA1D
:1006EC00781108E2F4F590E22401F218E23400F2F9
:1006FC007FE87E031207B2D37812E2940018E2640A
:10070C0080948140DBE4F208F2780C08E2FA08E20B
:06071C00F912046380CA1B
:0C07E7007F017E8E7D02DDFEDEFADFF673
:0107F30022E3
:1007B200AB07AA06EB1BAE0270011A4E60051207C8
:0407C200E780F122B9
:0407F400820F000070
:1005AA007823EBF208EAF208E9F27BFF7A0779226C
:1005BA00C003C002C0017823E2FB08E2FA08E2F9AC
:1005CA001203BB7BFF7A07796AC003C002C00178B5
:1005DA0023E2FB08E2FA08E2F990000312040A7B1C
:1005EA00FF7A047984C003C002C0017823E2FB08C1
:1005FA00E2FA08E2F990000612040A7BFF7A00790F
:10060A0003C003C002C0017823E2FB08E2FA08E251
:10061A00F990000912040A7BFF7A0779C6C003C061
:10062A0002C0017823E2FB08E2FA08E2F990000C22
:06063A0012040A0207C6CB
:10072200EE7044EF14B40800503D90073A75F003A0
:10073200A4C58325F0C58373020752020755020739
:100742005802075B02075E0207610207640207673D
:10075200C29022C29122C29222C29322C29422C287
:080762009522C29622C29722E3
:10076A00EE7044EF14B40800503D90078275F00310
:10077A00A4C58325F0C5837302079A02079D020761
:10078A00A00207A30207A60207A90207AC0207AF45
:10079A00D29022D29122D29222D29322D29422D2DF
:0807AA009522D29622D297227B
:1004840015081508A808EAF208EBF215081508A8DB
:1004940008ECF208EDF215081508A808EEF208EFCA
:0104A400F265
:1004A500A808E2FE08E2FFEE704BEF14B408005016
:1004B500449004C475F003A4C58325F0C583730275
:1004C50004DC0204E00204E40204E80204EC020491
:1004D500F00204F40204F8C290801AC2918016C298
:1004E500928012C293800EC294800AC2958006C281
:1004F500968002C297A8080808E2FE08E2FF1207E4
:10050500B2A808E2FE08E2FFEE704BEF14B4080053
:10051500504490052575F003A4C58325F0C5837364
:1005250002053D02054102054502054902054D0248
:100535000551020555020559D290801AD2918016AF
:10054500D2928012D293800ED294800AD2958006E0
:10055500D2968002D297A8080808E2FE08E2FF12A8
:1005650007B27810E22401F218E23400F2E2FC0846
:10057500E2FDA8080808E2FE08E2FF120371E5089B
:100585002404F8E2FC08E2FDD39FEE6480F8EC64F5
:0E059500809840030204A5ED4C70030204A5FB
:0705A300E5082406F508221B
:1000030015081508A808ECF208EDF21508150815EF
:1000130008A808EBF208EAF208E9F2E50824ECF58F
:0100230008D4
:10002400F8E4F208F2A8080808F208F2E508240443
:10003400F8E4F208F2E5082406F8E4F208F2E50828
:100044002408F8E4F208F2E508240AF8E4F208F2D5
:10005400E508240CF8E4F208F2E508240EF8E4F2CA
:1000640008F2E5082410F8E4F208F2E5082412F88E
:10007400E4F208F2A808F208F2A808E2FE08E2FF97
:10008400C39408EE648094804003020126EF25E0C7
:10009400FFEE33FEE5082414F8E2FB08E2FA08E276
:1000A400F98F828E83120383FFE5F07066EF14B438
:1000B4000800505F9000C675F003A4C58325F0C501
:1000C40083730200DE0200E40200EA0200F0020090
:1000D400F60200FC020102020108E508240480285B
:1000E400E50824068022E5082408801CE508240A83
:1000F4008016E508240C8010E508240E800AE50823
:1001040024108004E5082412F808E22401F218E21D
:100114003400F2A80808E22401F218E23400F202E2
:10012400007DE5082404F909E3700219E36002C2C2
:1001340090E5082406F909E3700219E36002C2910C
:10014400E5082408F909E3700219E36002C292E5A4
:1001540008240AF909E3700219E36002C293E5086E
:10016400240CF909E3700219E36002C294E508243F
:100174000EF909E3700219E36002C295E508241040
:10018400F909E3700219E36002C296E5082412F942
:1001940009E3700219E36002C297E5082417F8E244
:1001A400FE08E2FF1207B2E5082404F909E370022D
:1001B40019E36002D290E5082406F909E3700219F4
:1001C400E36002D291E5082408F909E3700219E317
:1001D4006002D292E508240AF909E3700219E36087
:1001E40002D293E508240CF909E3700219E36002D2
:1001F400D294E508240EF909E3700219E36002D2EF
:1002040095E5082410F909E3700219E36002D29617
:10021400E5082412F909E3700219E36002D297E5B4
:10022400082417F8E2FE08E2FF1207B2A80808083B
:1002340008E22401F218E23400F2A8080808E2FCFB
:1002440008E2FDE5082417F8E2FE08E2FF12037154
:10025400E5082419F8E2FC08E2FDD39FEE6480F877
:10026400EC6480984003020126ED4C7003020126E1
:07027400E508241BF5082238
:1007C600D290D291D292D293D294D295D296D297F7
:0107D6002200
:10064C000206CCE493A3F8E493A34003F68001F2F2
:10065C0008DFF48029E493A3F85407240CC8C333AF
:10066C00C4540F4420C8834004F456800146F6DF7E
:10067C00E4800B01020408102040809007F4E47E13
:10068C00019360BCA3FF543F30E509541FFEE49373
:10069C00A360010ECF54C025E060A840B8E493A33A
:1006AC00FAE493A3F8E493A3C8C582C8CAC583CA65
:1006BC00F0A3C8C582C8CAC583CADFE9DEE780BE1D
:0107F8000000
:10027B00E709F608DFFA8046E709F208DFFA803E65
:10028B0088828C83E709F0A3DFFA8032E309F60852
:10029B00DFFA8078E309F208DFFA807088828C83BA
:1002AB00E309F0A3DFFA806489828A83E0A3F6086E
:1002BB00DFFA805889828A83E0A3F208DFFA804C48
:1002CB0080D280FA80C680D4806980F2803380101F
:1002DB0080A680EA809A80A880DA80E280CA803388
:1002EB0089828A83ECFAE493A3C8C582C8CCC58300
:1002FB00CCF0A3C8C582C8CCC583CCDFE9DEE780D0
:10030B000D89828A83E493A3F608DFF9ECFAA9F04E
:10031B00EDFB2289828A83ECFAE0A3C8C582C8CCA4
:10032B00C583CCF0A3C8C582C8CCC583CCDFEADEBD
:10033B00E880DB89828A83E493A3F208DFF980CC1F
:10034B0088F0EF60010E4E60C388F0ED2402B40418
:10035B000050B9F582EB2402B4040050AF232345BF
:06036B0082239002CB7317
:10037100EF8DF0A4A8F0CF8CF0A428CE8DF0A42EA0
:02038100FE225A
:10038300BB0110E58229F582E5833AF583E0F5F0B8
:10039300A3E0225009E92582F886F008E622BBFE95
:1003A3000AE92582F8E2F5F008E222E5832AF583DB
:0803B300E993F5F0A3E99322A0
:1003BB00BB011A89828A83D0F0D0E0F8D0E0F9D063
:1003CB00E0FAD0E0FBE8C0E0C0F00204725016E99E
:1003DB00F8D083D082D0E0F9D0E0FAD0E0FBC08235
:1003EB00C083020469BBFE16E9F8D083D082D0E04B
:0F03FB00F9D0E0FAD0E0FBC082C08302047B227D
:10040A00BB0120E58229F582E5833AF583D0F0D055
:10041A00E0F8D0E0F9D0E0FAD0E0FBE8C0E0C0F0C4
:10042A000204725018E92582F8D083D082D0E0F90C
:10043A00D0E0FAD0E0FBC082C083020469BBFE1898
:10044A00E92582F8D083D082D0E0F9D0E0FAD0E072
:09045A00FBC082C08302047B2276
:060463008A838982E47324
:09046900EBF608EAF608E9F622B8
:09047200EBF0A3EAF0A3E9F0228B
:09047B00EBF208EAF208E9F222B2
:00000001FF
