:0300000002072BC9
:0C072B00787FE4F6D8FD758108020772A3
:10086C000001000000030000000000000000000078
:1005AA00E47811F208F208F208F2087C007DFE7B7A
:1005BA00FF7A08796CFE7F1012034B7BFE7A007972
:1005CA00001206957811E4F20804F27811E2FE08A6
:1005DA00E2FFD39408EE6480948040030206877891
:1005EA000008E2FA08E2F5828A831204677F2C7E09
:1005FA00011208477812E224017914F318E2340050
:10060A0019F37813E2FE08E2FFD39408EE648094AB
:10061A00805022780008E2FA08E2F5828A831204FE
:10062A00677F2C7E011208477814E22401F218E24F
:10063A003400F280CD7812E224017914F318E234FE
:10064A000019F37813E2FE08E2FFD39408EE6480FF
:10065A009480501B780308E2FA08E2F5828A831232
:10066A0004677814E22401F218E23400F280D478A4
:10067A0012E22401F218E23400F20205D5780C08DD
:0B068A00E2FA08E2F91204630205CE58
:0C087C007F017E8E7D02DDFEDEFADFF6DD
:01088800224D
:10084700AB07AA06EB1BAE0270011A4E6005120831
:040857007C80F1228E
:04088900820F0000DA
:100695007825EBF208EAF208E9F27BFF7A0779B7E9
:1006A500C003C002C0017825E2FB08E2FA08E2F9BE
:1006B5001203BB7BFF7A0779FFC003C002C0017834
:1006C50025E2FB08E2FA08E2F990000312040A7B2E
:1006D500FF7A047984C003C002C0017825E2FB08D3
:1006E500E2FA08E2F990000612040A7BFF7A007923
:1006F50003C003C002C0017825E2FB08E2FA08E264
:10070500F990000912040A7BFF7A08795BC003C0DF
:1007150002C0017825E2FB08E2FA08E2F990000C34
:0607250012040A02085B49
:1007B700EE7044EF14B40800503D9007CF75F00376
:1007C700A4C58325F0C583730207E70207EA02077A
:1007D700ED0207F00207F30207F60207F90207FC2A
:1007E700C2A022C2A122C2A222C2A322C2A422C2A2
:0807F700A522C2A622C2A7221E
:1007FF00EE7044EF14B40800503D90081775F003E5
:10080F00A4C58325F0C5837302082F02083202089E
:10081F003502083802083B02083E0208410208442C
:10082F00D2A022D2A122D2A222D2A322D2A422D2F9
:08083F00A522D2A622D2A722B5
:1004840015081508A808EAF208EBF215081508A8DB
:1004940008ECF208EDF215081508A808EEF208EFCA
:0104A400F265
:1004A500A808E2FE08E2FFEE704BEF14B408005016
:1004B500449004C475F003A4C58325F0C583730275
:1004C50004DC0204E00204E40204E80204EC020491
:1004D500F00204F40204F8C2A0801AC2A18016C278
:1004E500A28012C2A3800EC2A4800AC2A58006C241
:1004F500A68002C2A7A8080808E2FE08E2FF1208C3
:1005050047A808E2FE08E2FFEE704BEF14B40800BE
:10051500504490052575F003A4C58325F0C5837364
:1005250002053D02054102054502054902054D0248
:100535000551020555020559D2A0801AD2A180168F
:10054500D2A28012D2A3800ED2A4800AD2A58006A0
:10055500D2A68002D2A7A8080808E2FE08E2FF1288
:1005650008477810E22401F218E23400F2E2FC08B0
:10057500E2FDA8080808E2FE08E2FF120371E5089B
:100585002404F8E2FC08E2FDD39FEE6480F8EC64F5
:0E059500809840030204A5ED4C70030204A5FB
:0705A300E5082406F508221B
:1000030015081508A808ECF208EDF21508150815EF
:1000130008A808EBF208EAF208E9F2E50824ECF58F
:0100230008D4
:10002400F8E4F208F2A8080808F208F2E508240443
:10003400F8E4F208F2E5082406F8E4F208F2E50828
:100044002408F8E4F208F2E508240AF8E4F208F2D5
:10005400E508240CF8E4F208F2E508240EF8E4F2CA
:1000640008F2E5082410F8E4F208F2E5082412F88E
:10007400E4F208F2A808F208F2A808E2FE08E2FF97
:10008400C39408EE648094804003020126EF25E0C7
:10009400FFEE33FEE5082414F8E2FB08E2FA08E276
:1000A400F98F828E83120383FFE5F07066EF14B438
:1000B4000800505F9000C675F003A4C58325F0C501
:1000C40083730200DE0200E40200EA0200F0020090
:1000D400F60200FC020102020108E508240480285B
:1000E400E50824068022E5082408801CE508240A83
:1000F4008016E508240C8010E508240E800AE50823
:1001040024108004E5082412F808E22401F218E21D
:100114003400F2A80808E22401F218E23400F202E2
:10012400007DE5082404F909E3700219E36002C2C2
:10013400A0E5082406F909E3700219E36002C2A1EC
:10014400E5082408F909E3700219E36002C2A2E594
:1001540008240AF909E3700219E36002C2A3E5085E
:10016400240CF909E3700219E36002C2A4E508242F
:100174000EF909E3700219E36002C2A5E508241030
:10018400F909E3700219E36002C2A6E5082412F932
:1001940009E3700219E36002C2A7E5082417F8E234
:1001A400FE08E2FF120847E5082404F909E3700297
:1001B40019E36002D2A0E5082406F909E3700219E4
:1001C400E36002D2A1E5082408F909E3700219E307
:1001D4006002D2A2E508240AF909E3700219E36077
:1001E40002D2A3E508240CF909E3700219E36002C2
:1001F400D2A4E508240EF909E3700219E36002D2DF
:10020400A5E5082410F909E3700219E36002D2A6F7
:10021400E5082412F909E3700219E36002D2A7E5A4
:10022400082417F8E2FE08E2FF120847A8080808A5
:1002340008E22401F218E23400F2A8080808E2FCFB
:1002440008E2FDE5082417F8E2FE08E2FF12037154
:10025400E5082419F8E2FC08E2FDD39FEE6480F877
:10026400EC6480984003020126ED4C7003020126E1
:07027400E508241BF5082238
:10085B00D2A0D2A1D2A2D2A3D2A4D2A5D2A6D2A7E1
:01086B00226A
:100737000205AAE493A3F8E493A34003F68001F229
:1007470008DFF48029E493A3F85407240CC8C333C3
:10075700C4540F4420C8834004F456800146F6DF92
:10076700E4800B0102040810204080900889E47E91
:10077700019360BCA3FF543F30E509541FFEE49387
:10078700A360010ECF54C025E060A840B8E493A34E
:10079700FAE493A3F8E493A3C8C582C8CAC583CA79
:1007A700F0A3C8C582C8CAC583CADFE9DEE780BE31
:01088D00006A
:10027B00E709F608DFFA8046E709F208DFFA803E65
:10028B0088828C83E709F0A3DFFA8032E309F60852
:10029B00DFFA8078E309F208DFFA807088828C83BA
:1002AB00E309F0A3DFFA806489828A83E0A3F6086E
:1002BB00DFFA805889828A83E0A3F208DFFA804C48
:1002CB0080D280FA80C680D4806980F2803380101F
:1002DB0080A680EA809A80A880DA80E280CA803388
:1002EB0089828A83ECFAE493A3C8C582C8CCC58300
:1002FB00CCF0A3C8C582C8CCC583CCDFE9DEE780D0
:10030B000D89828A83E493A3F608DFF9ECFAA9F04E
:10031B00EDFB2289828A83ECFAE0A3C8C582C8CCA4
:10032B00C583CCF0A3C8C582C8CCC583CCDFEADEBD
:10033B00E880DB89828A83E493A3F208DFF980CC1F
:10034B0088F0EF60010E4E60C388F0ED2402B40418
:10035B000050B9F582EB2402B4040050AF232345BF
:06036B0082239002CB7317
:10037100EF8DF0A4A8F0CF8CF0A428CE8DF0A42EA0
:02038100FE225A
:10038300BB0110E58229F582E5833AF583E0F5F0B8
:10039300A3E0225009E92582F886F008E622BBFE95
:1003A3000AE92582F8E2F5F008E222E5832AF583DB
:0803B300E993F5F0A3E99322A0
:1003BB00BB011A89828A83D0F0D0E0F8D0E0F9D063
:1003CB00E0FAD0E0FBE8C0E0C0F00204725016E99E
:1003DB00F8D083D082D0E0F9D0E0FAD0E0FBC08235
:1003EB00C083020469BBFE16E9F8D083D082D0E04B
:0F03FB00F9D0E0FAD0E0FBC082C08302047B227D
:10040A00BB0120E58229F582E5833AF583D0F0D055
:10041A00E0F8D0E0F9D0E0FAD0E0FBE8C0E0C0F0C4
:10042A000204725018E92582F8D083D082D0E0F90C
:10043A00D0E0FAD0E0FBC082C083020469BBFE1898
:10044A00E92582F8D083D082D0E0F9D0E0FAD0E072
:09045A00FBC082C08302047B2276
:060463008A838982E47324
:09046900EBF608EAF608E9F622B8
:09047200EBF0A3EAF0A3E9F0228B
:09047B00EBF208EAF208E9F222B2
:00000001FF
