:030000000210EFFC
:0C10EF00787FE4F6D8FD75817F02113691
:0C14E00000000000000000000000000000
:08000E000221000002230000A2
:100AF70075640075650175660175671878687C000F
:100B07007D007BFF7A1479E07E007F0C12044B7B1B
:100B1700007A00796012142D7B007A007925121172
:100B27007B7B007A007942121329753600753701ED
:100B3700753200753332E4F538F539F534753532E9
:100B4700F53AF53BFB7A0079321208177B007A00F9
:100B570079541211D7AA5BA95C1206C57B007A00EB
:100B67007954855F82855E831206C97B007A007996
:100B7700608562828561831206C98F63E563B4036A
:100B87000974052567F567E4800DE563B4040E7401
:100B9700FB2567F56774FF3566F5668018E563B46E
:100BA70002086365FF6364FF800BE563B40509858D
:100BB7006656856757E4F563E565640145647038F3
:100BC700AE54AF55FC7D641204A57C007D0A120467
:100BD700A58C688D69AE54AF557C007D0A1204A5BB
:100BE7007C007D0A1204A58C6A8D6BAE54AF557CD0
:100BF700007D0A1204A58037AE66AF677C007D646E
:100C07001204FA7C007D0A1204FA8C688D69AE66BC
:100C1700AF677C007D0A1204FA7C007D0A1204FA91
:100C27008C6A8D6BAE66AF677C007D0A1204FA8C06
:100C37006C8D6DD3E5559557E55495565004D29074
:100C4700D2A37B007A0079687C007D037E007F0158
:0C0C57008547828546831206C9020B5CAB
:1012D800E53B6401453A7033D3E5559557E5549598
:1012E80056400CE522640A45217004B290B2A3D39B
:1012F800E522940AE521648094804005E4F521F50F
:10130800220522E522701405218010E53B64024580
:101318003A70080524E52470020523E4F53AF53B04
:0113280022A2
:0C14D3007F017E8E7D02DDFEDEFADFF67A
:0114DF0022EA
:10148900AB07AA06EB1BAE0270011A4E60051214D7
:04149900D380F122E9
:10142D008B748A7589767BFF7A0D79AFC003C00204
:10143D00C001AB74AA75A97612061DAB74AA75A965
:08144D0076900003E402047133
:060DAF008B778A78897938
:100DB500E4F57AF57BF57CF57D75B0FF20B4127FFF
:100DC5000AFE12148920B40930B4FD757A00757BCA
:100DD5000220B5137F0A7E0012148920B50930B5AB
:100DE500FD757A00757B0320B6137F0A7E00121409
:100DF5008920B60930B6FD757A00757B0420B713D6
:100E05007F0A7E0012148920B70930B7FD757A0074
:100E1500757B0575B00FE5B0640F60777F0A7E00BE
:100E2500121489E5B0640F606A75B00FAFB0EF2496
:100E3500F9602324FC601724FE600B14701E757A7C
:100E450000757B068016757A00757B0A800E757AAB
:100E550000757B0E8006757A00757B1275B0F0AF54
:100E6500B0EF2490602224C0601A24E0600C24F0C6
:100E75007021857A7A857B7B8019057BE57B7013EC
:100E8500057A800F740280027403257BF57BE435B7
:100E95007AF57AE57B457A600EAB77AA78A97990E1
:0B0EA5000003E57B120471AE7AAF7B06
:010EB000221F
:0400160002080000DC
:10117B008B748A7589767BFF7A007903C003C00272
:10118B00C001AB74AA75A97612061D7BFF7A007994
:10119B0006C003C002C001AB74AA75A97690000308
:1011AB0012066C7BFF7A0E79B1C003C002C001AB93
:1011BB0074AA75A97690000612066CAB74AA75A971
:0C11CB00769000091205ED0000000A22D9
:03000300C2A32273
:03000600D2A32260
:100EB100150A150AA80AA60408A605150A150AA8FE
:0C0EC1000AA60608A607E50A24FCF50AAC
:100ECD00F8E4F608F6A80A0808F608F6E53764010E
:100EDD004536700FE53945387009A80AA63208A6BF
:100EED00338020E53745367011E539640245387099
:100EFD0009A80AA63408A6358009AF31A80AA6307C
:100F0D0008A607E50A2404F8E6FC08E6FDE50A2430
:100F1D0006F8E6FE08E6FF120493A80A0808A606DE
:100F2D0008A607AC08AD09A80AE6FE08E6FF1204FC
:100F3D0093A80A0808E6FC08E6FDD3EF9DEE9C5049
:100F4D0004C2A3801AC3ED9FEC9E5013E50A24043E
:100F5D00F8E6FC08E6FDD3EF9DEE9C5002D2A3050A
:100F6D0009E50970020508AC08FDA80AE6FE08E6C9
:100F7D00FF120493E50A2404F8E6FC08E6FDD3EF1E
:0A0F8D009DEE9C4005E4F508F5090F
:070F9700E50A2408F50A2217
:101472003F065B4F666D7D077F6F777C395E7971C2
:07148200FFFEFDFBF7EFDFA9
:061329008B748A758976C1
:10132F00E4FFAB74AA75A97690000675F002EF1270
:10133F000611E4F5F01205B20FBF06E67BFF7A1433
:10134F007901C003C002C001AB74AA75A976120659
:10135F001D7BFF7A10794AC003C002C001AB74AA8B
:09136F0075A97690000312066CCA
:011378002252
:10140100D2A674722DF58274143CF583E493F580B1
:10141100C2A6901482E493F580D2A774822FF5823C
:0C14210074143EF583E493F580C2A7220A
:10104A00150A150A150AA80AA60308A60208A6017F
:10105A00150A150AA80AA60408A605150A150AA853
:0A106A000AA60608A607150A150AD3
:10107400A80A7600087601A80A0808E6FE08E6FF32
:10108400A80AA60608A607E50A2404F9A80AE6FEA3
:1010940008E6FFD3099719E76480F8EE6480985056
:1010A40043C006C007EF24FFFDEE34FFFCED25E04E
:1010B400FDEC33FCE50A2406F8860308E6FA08E6A4
:1010C400F98D828C8312055BFDACF0D007D006123B
:1010D40014017F017E00121489A80A0806E618701C
:0410E400A60680A339
:0710E800E50A2409F50A22C4
:100817008B748A7589767BFF7A1279D8C003C002F8
:10082700C001AB74AA75A97690000A12066C7BFF0B
:100837007A0C7963C003C002C001AB74AA75A976AC
:1008470090000D12066CAB74AA75A976900004127D
:10085700055B640145F060030208F7900006120586
:100867005B45F060030208F7758901120530FDAC9E
:10087700F07E037FE81204FAAB07AA06EA3395E095
:10088700F9F87F007E107D0E7C001213BDC3E49F34
:10089700FFE49EFE74019DFDE49CFCE4FB7A01F9F4
:1008A700F81213BD8F8CAB74AA75A976120530FDAB
:1008B700ACF07E037FE81204FAAB07AA06EA339589
:1008C700E0F9F87F007E107D0E7C001213BDC3E4B3
:1008D7009FFFE49EFE74019DFDE49CFCE4FB7A010E
:1008E700F9F81213BDAF038F8AD2AFD2A9D28C22E7
:1008F700AB74AA75A97690000412055B45F06003F6
:100907000209A790000612055B640245F060030226
:1009170009A775891090000212055BFDACF07E03F4
:100927007FE81204FAAB07AA06EA3395E0F9F87FE5
:10093700007E107D0E7C001213BDC3E49FFFE49E72
:10094700FE74019DFDE49CFCE4FB7A01F9F81213A7
:10095700BD8F8DAB74AA75A97690000212055BFD59
:10096700ACF07E037FE81204FAAB07AA06EA3395D8
:10097700E0F9F87F007E107D0E7C001213BDC3E402
:100987009FFFE49EFE74019DFDE49CFCE4FB7A015D
:10099700F9F81213BDAF038F8BD2AFD2ABD28E2231
:1009A700AB74AA75A97690000412055B640145F043
:1009B7006003020AF690000612055B640245F060C8
:1009C70003020AF6C2AF75891190000212055BFD9A
:1009D700ACF07E037FE81204FAAB07AA06EA339568
:1009E700E0F9F87F007E107D0E7C001213BDC3E492
:1009F7009FFFE49EFE74019DFDE49CFCE4FB7A01ED
:100A0700F9F81213BD8F8DAB74AA75A97690000201
:100A170012055BFDACF07E037FE81204FAAB07AA70
:100A270006EA3395E0F9F87F007E107D0E7C001210
:100A370013BDC3E49FFFE49EFE74019DFDE49CFC8F
:100A4700E4FB7A01F9F81213BDAF038F8BD2ABD257
:100A57008EAB74AA75A976120530FDACF0EC1202C4
:100A6700C1A804A905AA06AB07E4FFFE7D7A7C446A
:100A770012021FA804A905AA06AB07E4FFFE7D61C1
:100A87007C4912021FA804A905AA06AB07E4FFFECA
:100A97007D807C47120021E4FBFA798078431202BB
:100AA7001F1202FA8F8CAB74AA75A976120530FD56
:100AB700ACF07E037FE81204FAAB07AA06EA339587
:100AC700E0F9F87F007E107D0E7C001213BDC3E4B1
:100AD7009FFFE49EFE74019DFDE49CFCE4FB7A010C
:100AE700F9F81213BDAF038F8AD2A9D28CD2AF22E5
:100C63008B778A78897990000412055B640145F0DB
:100C73006003020D0690000812055B640145F060F5
:100C830003020D06120530FDACF07E037FE812046B
:100C9300FAAB07AA06EA3395E0F9F87F007E107DE8
:100CA3000E7C001213BDC3E49FFFE49EFE74019DFE
:100CB300FDE49CFCE4FB7A01F9F81213BD8F8CABC5
:100CC30077AA78A979120530FDACF07E037FE8128C
:100CD30004FAAB07AA06EA3395E0F9F87F007E1021
:100CE3007D0E7C001213BDC3E49FFFE49EFE7401DE
:100CF3009DFDE49CFCE4FB7A01F9F81213BDAF03FC
:100D03008F8A22AB77AA78A97990000612055B64D3
:100D13000245F06003020DAE90000812055B640209
:100D230045F06003020DAE90000212055BFDACF0CE
:100D33007E037FE81204FAAB07AA06EA3395E0F9CB
:100D4300F87F007E107D0E7C001213BDC3E49FFF6D
:100D5300E49EFE74019DFDE49CFCE4FB7A01F9F83A
:100D63001213BD8F8DAB77AA78A979900002120573
:100D73005BFDACF07E037FE81204FAAB07AA06EA38
:100D83003395E0F9F87F007E107D0E7C001213BDD1
:100D9300C3E49FFFE49EFE74019DFDE49CFCE4FB21
:0C0DA3007A01F9F81213BDAF038F8B2208
:03000B00021230AE
:10123000C0E0C0F0C083C082C0D075D000C000C084
:1012400001C002C003C004C005C006C007753A0053
:10125000753B017B007A007932854182854083129B
:1012600006C9AA3DA93E1206C5D007D006D005D0B2
:1012700004D003D002D001D000D0D0D082D083D00F
:04128000F0D0E03298
:03001B000212844A
:10128400C0E0C0F0C083C082C0D075D000C000C030
:1012940001C002C003C004C005C006C007753A00FF
:1012A400753B027B007A0079328541828540831246
:1012B40006C9AA3DA93E1206C5D007D006D005D05E
:1012C40004D003D002D001D000D0D0D082D083D0BB
:0412D400F0D0E03244
:0D14C500E4C2A27F67DFFED2A27F04DFFE3B
:0114D20022F7
:10149D00E4FFC2A20FD2A20F0FA2A292007F08DF1B
:0314AD00FEA2009C
:0114B0002219
:10145500E4FE7D0112149DE433FFC433333354801D
:0C146500FCEEC3134CFE0DBD09EAAF06FF
:011471002258
:101379007E01EF139200EFC313FF300017C2A20BD7
:10138900BB0000D2A27A007B08EB1B70011AEB4A62
:1013990070F7801BC2A27A007B08EB1B70011AEB65
:1013A9004A70F7D2A20BBB00010A0BBB00010A0E5F
:0313B900BE09BFAB
:0113BC00220E
:1014B1001214C57F017E001214897FCC1213797F2B
:0414C1004402137955
:060F9E008B778A78897947
:100FA400E4F57AFFF57BF57FF57EF57DF57C12148B
:100FB400C57F017E001214897FCC1213797FBE1283
:100FC40013791214558F7A121455AB77AA78A9792C
:100FD400E48FF0120593AB77AA78A97912053075DE
:100FE400F000120593AB77AA78A979120530FFE5D2
:100FF4007A4FFFE5F08FF0120593AB77AA78A979C1
:10100400120530FDACF0E41202C1E4FBFA798078F9
:101014003D1201168F7F8E7E8D7D8C7CE4FFFE7DDC
:10102400207C41AB7FAA7EA97DA87C120116E4FB3B
:10103400FAF9783F1200251202FAAB77AA78A97957
:06104400EE8FF00205939F
:1011D7008B748A758976E4F5F0120593AB74AA755A
:1011E700A976900002740175F0181205B2900004F8
:1011F700740175F0041205B27BFF7A1479B1C0034C
:10120700C002C001AB74AA75A97690000612066CDD
:101217007BFF7A0F799EC003C002C001AB74AA7529
:09122700A97690000912066C2260
:10001E00020366E86480F8E933E83360110460F0A7
:10002E00ED33EC337009E8FCE9FDEAFEEBFF220448
:10003E0060DED3EB9FEA9EE99DE8C2E78CF0C2F743
:10004E0095F0400CE8CCF8E9CDF9EACEFAEBCFFB0F
:10005E0012033185D0F05804700320D5B3E8047034
:10006E00075002B2D502037092D5EC0460F7E4CCCF
:10007E00C0E0C398F8603B94186008400DD0E0FBD8
:10008E00020348E4FBFAC9FC8028E830E406E4C920
:10009E00FBE4CAFCE830E305E4C9CACBFCE854072C
:1000AE006010F8C3E913F9EA13FAEB13FBEC13FC37
:1000BE00D8F130F52FC3E49CFCEF9BFFEE9AFEEDDA
:1000CE0099FDD0E0FBEF4E4D4C701222DB03020384
:1000DE006DEC2CFCEF33FFEE33FEED33FDED30E730
:1000EE00EB020348EF2BFFEE3AFEED39FDD0E0FBBD
:1000FE0050130BBB0003020370ED13FDEE13FEEF66
:08010E0013FFEC13FC0203488F
:10011600EC4D6011E8497017ED33EC3304600DE4E3
:10012600FCFFFEFD22E933E8330470F80203661291
:10013600033158046009E4CC248150062850090292
:10014600037028400302036DC0E0EB4A7044B98097
:1001560006D0E0FB02035CEF4E701CBD8008EBFF8F
:10016600EAFEE9FD80EBE98DF0A4FEE5F00201FF71
:10017600E9CDF9EAFEEBFFEF89F0A4FCE5F0CE89C4
:10018600F0A42EFFE435F0CD89F0A42DFEE435F081
:100196008067EF4E7005BD80D780C3EF8BF0A4ACAF
:1001A600F0EE8BF0A42CFCE435F0F8EF8AF0A42CEA
:1001B600E5F038FCE433CB8DF0A42CFCE5F03BF8FD
:1001C600EE8AF0A42CFCE5F038F8E433CF89F0A4ED
:1001D6002CFCE5F038CF3400CE89F0A42FFFE5F0F3
:1001E6003EFEE433C98DF0A42EFEE5F039CD8AF04B
:1001F600A42FFFE5F03EFEE43DFD33D0E0FB5007C3
:100206000BBB000F020370EC2CFCEF33FFEE33FE4A
:06021600ED33FD02034878
:10021C00020370EC5D046005E85904700302036688
:10022C00120331580460F6EC4860F2EC7004FDFEE9
:10023C00FF22C860DB2481C85009C39860025006B5
:10024C0002036D9850CAF582E9294B4A7005AB82BE
:10025C0002035C75F0007C1A7880C3EF9BEE9AED7C
:10026C0099400DC3EF9BFFEE9AFEED99FDE842F02D
:10027C00DC23ACF0D0E0FFD0E0FED0E0FDAB822080
:10028C00E7101BEB60BAEC2CFCEF33FFEE33FEED0A
:10029C0033FD020348E803F830E705C0F075F000C1
:1002AC00EF2FFFEE33FEED33FD40B830E7C280AAEE
:1002BC0075F020800E75F010800575F0087D007EBD
:1002CC00007F003392D530D5031205DFEC3340109C
:1002DC00EF33FFEE33FEED33FDEC33FCD5F0ED22C6
:0E02EC00E5F0247EA2D513CC92E7CDCEFF2202
:1002FA00EDD2E7CD33EC3392D524814006E4FFFEFC
:10030A00FDFC22FCE4CFCECDCC24E0501174FF805A
:10031A00EDC3CC13CCCD13CDCE13CECF13CF0470F7
:07032A00F030D5DE0205DF13
:10033100E9D2E7C933E833F892D5EDD2E7CD33EC12
:0703410033FC5002B2D5228B
:10034800EC30E7100FBF000C0EBE00080DBD000416
:100358000BEB6014A2D5EB13FCED92E7FD2274FFC2
:10036800FCFDFEFF22E480F8A2D574FF13FC7D801B
:03037800E480EF2F
:1010FB00020AF7E493A3F8E493A34003F68001F20A
:10110B0008DFF48029E493A3F85407240CC8C333F5
:10111B00C4540F4420C8834004F456800146F6DFC4
:10112B00E4800B010204081020408090000EE47E46
:10113B00019360BCA3FF543F30E509541FFEE493B9
:10114B00A360010ECF54C025E060A840B8E493A380
:10115B00FAE493A3F8E493A3C8C582C8CAC583CAAB
:10116B00F0A3C8C582C8CAC583CADFE9DEE780BE63
:01001A0000E5
:10037B00E709F608DFFA8046E709F208DFFA803E64
:10038B0088828C83E709F0A3DFFA8032E309F60851
:10039B00DFFA8078E309F208DFFA807088828C83B9
:1003AB00E309F0A3DFFA806489828A83E0A3F6086D
:1003BB00DFFA805889828A83E0A3F208DFFA804C47
:1003CB0080D280FA80C680D4806980F2803380101E
:1003DB0080A680EA809A80A880DA80E280CA803387
:1003EB0089828A83ECFAE493A3C8C582C8CCC583FF
:1003FB00CCF0A3C8C582C8CCC583CCDFE9DEE780CF
:10040B000D89828A83E493A3F608DFF9ECFAA9F04D
:10041B00EDFB2289828A83ECFAE0A3C8C582C8CCA3
:10042B00C583CCF0A3C8C582C8CCC583CCDFEADEBC
:10043B00E880DB89828A83E493A3F208DFF980CC1E
:10044B0088F0EF60010E4E60C388F0ED2402B40417
:10045B000050B9F582EB2402B4040050AF232345BE
:06046B0082239003CB7315
:10047100F8BB010DE58229F582E5833AF583E8F0C1
:10048100225006E92582C8F622BBFE05E92582C86D
:02049100F22255
:10049300EF8DF0A4A8F0CF8CF0A428CE8DF0A42E7D
:0204A300FE2237
:1004A500BC000BBE0029EF8DF084FFADF022E4CC3B
:1004B500F875F008EF2FFFEE33FEEC33FCEE9DEC04
:1004C500984005FCEE9DFE0FD5F0E9E4CEFD22ED4A
:1004D500F8F5F0EE8420D21CFEADF075F008EF2F94
:1004E500FFED33FD4007985006D5F0F222C398FD85
:0504F5000FD5F0EA2222
:1004FA00C2D5EC30E709B2D5E4C39DFDE49CFCEE1D
:10050A0030E715B2D5E4C39FFFE49EFE1204A5C3EB
:10051A00E49DFDE49CFC80031204A530D507C3E4E6
:06052A009FFFE49EFE228B
:10053000BB010A89828A83E0F5F0A3E02250068796
:10054000F009E71922BBFE07E3F5F009E319228958
:0B055000828A83E493F5F0740193228B
:10055B00BB0110E58229F582E5833AF583E0F5F0DE
:10056B00A3E0225009E92582F886F008E622BBFEBB
:10057B000AE92582F8E2F5F008E222E5832AF58301
:08058B00E993F5F0A3E99322C6
:10059300BB010A89828A83F0E5F0A3F0225006F7B3
:0F05A30009A7F01922BBFE06F3E5F009F31922B0
:1005B200F8BB0111E58229F582E5833AF583E8F07B
:1005C200E5F0A3F0225009E92582C8F608A6F02238
:0D05D200BBFE09E92582C8F2E5F008F2221F
:1013BD00C2D5E830E70FB2D5E4C39BFBE49AFAE45B
:1013CD0099F9E498F8EC30E717B2D51213F3120738
:1013DD0007E4C39BFBE49AFAE499F9E498F88003D7
:1013ED0012070730D50DE4C39FFFE49EFEE49DFD7B
:0413FD00E49CFC224E
:0E05DF00C3E49FFFE49EFEE49DFDE49CFC222D
:1005ED00BB010DE58229F582E5833AF5830207B259
:1005FD005007E92582F8020799BBFE07E92582F825
:04060D000207E322DB
:0C061100A42582F582E5F03583F58322F4
:10061D00BB011A89828A83D0F0D0E0F8D0E0F9D0FE
:10062D00E0FAD0E0FBE8C0E0C0F00208055016E9A2
:10063D00F8D083D082D0E0F9D0E0FAD0E0FBC082D0
:10064D00C0830207FCBBFE16E9F8D083D082D0E050
:0F065D00F9D0E0FAD0E0FBC082C08302080E2281
:10066C00BB0120E58229F582E5833AF583D0F0D0F1
:10067C00E0F8D0E0F9D0E0FAD0E0FBE8C0E0C0F060
:10068C000208055018E92582F8D083D082D0E0F911
:10069C00D0E0FAD0E0FBC082C0830207FCBBFE189E
:1006AC00E92582F8D083D082D0E0F9D0E0FAD0E00E
:0906BC00FBC082C08302080E227B
:0606C5008A838982E473C0
:1006CB0075F008758200EF2FFFEE33FECD33CDCCE6
:1006DB0033CCC58233C5829BED9AEC99E582984069
:1006EB000CF582EE9BFEED9AFDEC99FC0FD5F0D646
:1006FB00E4CEFBE4CDFAE4CCF9A88222B800C1B970
:10070B000059BA002DEC8BF084CFCECDFCE5F0CBAD
:10071B00F97818EF2FFFEE33FEED33FDEC33FCEBE6
:10072B0033FB10D703994004EB99FB0FD8E5E4F9A1
:10073B00FA227818EF2FFFEE33FEED33FDEC33FC8E
:10074B00C933C910D7059BE99A4007EC9BFCE99A82
:10075B00F90FD8E0E4C9FAE4CCFB2275F010EF2FC7
:10076B00FFEE33FEED33FDCC33CCC833C810D707C7
:10077B009BEC9AE899400AED9BFDEC9AFCE899F802
:0E078B000FD5F0DAE4CDFBE4CCFAE4C8F92295
:10079900D083D082E493F608740193F60874029327
:0907A900F608740393F67404735E
:1007B200A8828583F0D083D0821207C91207C9129A
:1007C20007C91207C9E473E493A3C583C5F0C583BF
:1007D200C8C582C8F0A3C583C5F0C583C8C582C891
:0107E20022F4
:1007E300D083D082E493F208740193F208740293E5
:0907F300F208740393F27404731C
:0907FC00EBF608EAF608E9F62222
:09080500EBF0A3EAF0A3E9F022F4
:09080E00EBF208EAF208E9F2221B
:00000001FF
