:03000000020F00EC
:0C0F0000787FE4F6D8FD75816B020F4786
:10120E000C240007000600050004000300020C1861
:10121E000010000E00110011000000000214000169
:10122E00021600000261000002080000020A01B06E
:10123E00020C0000020E000002100001021200005B
:10100A00756300756401E5174516700D8554828570
:10101A005383AF15AE14020413E517640145167025
:10102A0053E56245617026F56375640185548285CE
:10103A005383AF64AE631204130564E5647002055A
:10104A0063D39408E5636480948040E0227563006A
:10105A00756401855782855683AF64AE63120413A3
:10106A000564E56470020563D39408E563648094BB
:0B107A008040E022AA5FA96012040F72
:011085002248
:1012D100E51764024516600E7B007A0079247C00D4
:1012E1007D067E008011E517640245167014FB7AB5
:1012F100007918FC7D05FE7F0185458285448312B6
:03130100041322B0
:101297007B007A007952120F8C7B007A007940121A
:1012A700112EE4F534F535F530753132F5367537ED
:1012B70002F532753332F538F539FB7A0079301299
:0A12C700055312100A1212D180F82C
:100C0D00E539640145387003020D33E53964024559
:100C1D00386003020D33E50964024508701AD3E507
:100C2D000B948EE50A64809481400DE50B150B70D5
:100C3D0002150AE4F508F509E50D6405450C703358
:100C4D00D3E50B948EE50A6480948140260515E565
:100C5D001570020514E4F50CF50DD3E5159408E5B2
:100C6D0014648094804005E4F514F515AA5FA9601D
:100C7D0012040FE50BB48E1EE50AB40119E51164DB
:100C8D000145107011F516751701F50EF50FF510DC
:100C9D00F511F512F513E50F640A450E7018D3E53D
:100CAD0013943CE51264809480500BE4F50EF50F1F
:100CBD006362FF6361FFE513643C45127005F51631
:100CCD00751702AE0AAF0B7C007D641202877C00A3
:100CDD007D0A1202878C2A8D2BAE0AAF0B7C007D0C
:100CED000A1202877C007D0A1202878C2C8D2DAE94
:100CFD000AAF0B7C007D0A1202878C2E8D2F050901
:100D0D00E50970020508050DE50D7002050C050FCE
:100D1D00E50F7002050EE517640145167008051301
:0B0D2D00E51370020512E4F538F539FB
:010D38002298
:0C000E007F017E8E7D02DDFEDEFADFF653
:01001A0022C3
:10134900AB07AA06EB1BAE0270011A4E600512002C
:041359000E80F122EF
:04124E000269000031
:100F8C008B638A6489657BFF7A11797EC003C0020A
:100F9C00C001AB63AA64A9651203677BFF7A117960
:100FAC00C6C003C002C001AB63AA64A9659000036C
:100FBC001203B67BFF7A0D7939C003C002C001ABB6
:100FCC0063AA64A9659000061203B67BFF7A0879C0
:100FDC0033C003C002C001AB63AA64A965900009C9
:100FEC001203B67BFF7A13795DC003C002C001AB5C
:0E0FFC0063AA64A96590000C1203B602135D8F
:10117E00EE7044EF14B40800503D90119675F003D4
:10118E00A4C58325F0C583730211AE0211B10211FD
:10119E00B40211B70211BA0211BD0211C00211C37D
:1011AE00C29022C29122C29222C29322C29422C221
:0811BE009522C29622C297227D
:1011C600EE7044EF14B40800503D9011DE75F00344
:1011D600A4C58325F0C583730211F60211F9021125
:1011E600FC0211FF02120202120502120802120B81
:1011F600D29022D29122D29222D29322D29422D279
:081206009522D29622D2972214
:100D3900156B156BA86BA60208A603156B156BA896
:100D49006BA60408A605156B156BA86BA60608A665
:010D59000792
:100D5A00A86BE6FE08E6FFEE704BEF14B4080050ED
:100D6A0044900D7975F003A4C58325F0C5837302F9
:100D7A000D91020D95020D99020D9D020DA1020D14
:100D8A00A5020DA9020DADC290801AC2918016C2A9
:100D9A00928012C293800EC294800AC2958006C2C3
:100DAA00968002C297A86B0808E6FE08E6FF1213AF
:100DBA0049A86BE6FE08E6FFEE704BEF14B4080094
:100DCA005044900DDA75F003A4C58325F0C58373EA
:100DDA00020DF2020DF6020DFA020DFE020E0202D9
:100DEA000E06020E0A020E0ED290801AD2918016B8
:100DFA00D2928012D293800ED294800AD295800623
:100E0A00D2968002D297A86B0808E6FE08E6FF127F
:100E1A001349056AE56A70020569AC69FDA86B08A1
:100E2A0008E6FE08E6FF120275E56B2404F8E6FC04
:100E3A0008E6FDC3EF9DEC6480F8EE6480985003E9
:0A0E4A00020D5AED4C7003020D5A20
:070E5400E56B2406F56B229B
:10083300156B156BA86BA60408A605156B156B1530
:100843006BA86BA60308A60208A601E56B24ECF5CA
:010853006B39
:10085400F8E4F608F6A86B0808F608F6E56B240435
:10086400F8E4F608F6E56B2406F8E4F608F6E56B1A
:100874002408F8E4F608F6E56B240AF8E4F608F62A
:10088400E56B240CF8E4F608F6E56B240EF8E4F6C0
:1008940008F6E56B2410F8E4F608F6E56B2412F884
:1008A400E4F608F6A86BF608F6A86BE6FE08E6FF81
:1008B400C39408EE64809480400302098EEF25E01F
:1008C400FFEE33FEE56B2414F8860308E6FA08E627
:1008D400F98F828E831202E8FFE5F0600302098239
:1008E400EF14B4080040030209829008FC75F00379
:1008F400A4C58325F0C583730209140209220209E1
:100904003002093E02094C02095A020968020976BA
:10091400E56B2404F80806E6187063068060E56B4E
:100924002406F80806E6187055068052E56B24087C
:10093400F80806E6187047068044E56B240AF808B0
:1009440006E6187039068036E56B240CF80806E6CE
:1009540018702B068028E56B240EF80806E618703C
:100964001D06801AE56B2410F80806E618700F06B9
:10097400800CE56B2412F80806E618700106A86BD3
:100984000806E6187001060208ADE56B2404F909AF
:10099400E719476002C290E56B2406F909E7194795
:1009A4006002C291E56B2408F909E719476002C2A5
:1009B40092E56B240AF909E719476002C293E56BD3
:1009C400240CF909E719476002C294E56B240EF977
:1009D40009E719476002C295E56B2410F909E71984
:1009E400476002C296E56B2412F909E719476002D1
:1009F400C297E56B2417F8E6FE08E6FF121349E5F3
:100A04006B2404F909E719476002D290E56B2406C8
:100A1400F909E719476002D291E56B2408F909E75F
:100A240019476002D292E56B240AF909E719476075
:100A340002D293E56B240CF909E719476002D294BA
:100A4400E56B240EF909E719476002D295E56B249A
:100A540010F909E719476002D296E56B2412F909E7
:100A6400E719476002D297E56B2417F8E6FE08E61B
:100A7400FF121349A86B08080806E618700106A8B7
:100A84006B0808E6FC08E6FDE56B2417F8E6FE08AB
:100A9400E6FF120275E56B2419F8E6FC08E6FDC3CF
:100AA400EF9DEC6480F8EE648098500302098EEDAB
:060AB4004C700302098EE4
:070ABA00E56B241BF56B2224
:10135D00D290D291D292D293D294D295D296D29754
:01136D00225D
:101330003F065B4F666D7D077F6F777C395E797105
:091340007638FFFEFDFBF7EFDF3C
:06112E008B638A648965F1
:10113400E4FFAB63AA64A96590000675F002EF12A0
:10114400035BE4F5F01203200FBF06E67BFF7A137E
:101154007904C003C002C001AB63AA64A965120389
:10116400677BFF7A0E795BC003C002C001AB63AA40
:0911740064A9659000031203B6A2
:01117D00224F
:10130400D2A674302DF58274133CF583E493F580F2
:10131400C2A6901342E493F580D2A774422FF582BB
:0C13240074133EF583E493F580C2A72209
:100E5B00156B156B156BA86BA60308A60208A601EC
:100E6B00156B156BA86BA60408A605156B156BA85F
:0A0E7B006BA60608A607156B156BA1
:100E8500A86B7600087601A86B0808E6FE08E6FF61
:100E9500A86BA60608A607E56B2404F9A86BE6FE71
:100EA50008E6FFD3099719E76480F8EE6480985047
:100EB50043C006C007EF24FFFDEE34FFFCED25E03F
:100EC500FDEC33FCE56B2406F8860308E6FA08E634
:100ED500F98D828C831202E8FDACF0D007D00612A2
:100EE50013047F017E00121349A86B0806E61870EB
:040EF500A60680A32A
:070EF900E56B2409F56B22F3
:100553008B638A6489657BFF7A0C790DC003C002C3
:10056300C001AB63AA64A96590000A1203B67BFFBE
:100573007A0A79C1C003C002C001AB63AA64A9654A
:1005830090000D1203B6AB63AA64A9659000041230
:1005930002E8640145F0600302063390000612028C
:1005A300E845F060030206337589011202BDFDAC14
:1005B300F07E037FE8120287AB07AA06EA3395E0D1
:1005C300F9F87F007E107D0E7C00121253C3E49F66
:1005D300FFE49EFE74019DFDE49CFCE4FB7A01F9BB
:1005E300F81212538F8CAB63AA64A9651202BDFD86
:1005F300ACF07E037FE8120287AB07AA06EA3395C5
:10060300E0F9F87F007E107D0E7C00121253C3E4E4
:100613009FFFE49EFE74019DFDE49CFCE4FB7A01D4
:10062300F9F8121253AF038F8AD2AFD2A9D28C2218
:10063300AB63AA64A9659000041202E845F0600365
:100643000206E39000061202E8640245F06003022A
:1006530006E37589109000021202E8FDACF07E03F8
:100663007FE8120287AB07AA06EA3395E0F9F87F21
:10067300007E107D0E7C00121253C3E49FFFE49EA4
:10068300FE74019DFDE49CFCE4FB7A01F9F812126F
:10069300538F8DAB63AA64A9659000021202E8FD33
:1006A300ACF07E037FE8120287AB07AA06EA339514
:1006B300E0F9F87F007E107D0E7C00121253C3E434
:1006C3009FFFE49EFE74019DFDE49CFCE4FB7A0124
:1006D300F9F8121253AF038F8BD2AFD2ABD28E2263
:1006E300AB63AA64A9659000041202E8640145F0B3
:1006F30060030208329000061202E8640245F060CB
:1007030003020832C2AF7589119000021202E8FD9C
:10071300ACF07E037FE8120287AB07AA06EA3395A3
:10072300E0F9F87F007E107D0E7C00121253C3E4C3
:100733009FFFE49EFE74019DFDE49CFCE4FB7A01B3
:10074300F9F81212538F8DAB63AA64A96590000266
:100753001202E8FDACF07E037FE8120287AB07AA22
:1007630006EA3395E0F9F87F007E107D0E7C0012D7
:100773001253C3E49FFFE49EFE74019DFDE49CFCC1
:10078300E4FB7A01F9F8121253AF038F8BD2ABD289
:100793008EAB63AA64A9651202BDFDACF0EC120135
:1007A300BBA804A905AA06AB07E4FFFE7D7A7C4437
:1007B300120119A804A905AA06AB07E4FFFE7D618F
:1007C3007C49120119A804A905AA06AB07E4FFFE98
:1007D3007D807C47120021E4FBFA79807843120183
:1007E300191201F48F8CAB63AA64A9651202BDFDD3
:1007F300ACF07E037FE8120287AB07AA06EA3395C3
:10080300E0F9F87F007E107D0E7C00121253C3E4E2
:100813009FFFE49EFE74019DFDE49CFCE4FB7A01D2
:10082300F9F8121253AF038F8AD2A9D28CD2AF2216
:100AC1008B668A6789689000041202E8640145F028
:100AD1006003020B649000081202E8640145F060B3
:100AE10003020B641202BDFDACF07E037FE812022B
:100AF10087AB07AA06EA3395E0F9F87F007E107DFF
:100B01000E7C00121253C3E49FFFE49EFE74019D0C
:100B1100FDE49CFCE4FB7A01F9F81212538F8CABD3
:100B210066AA67A9681202BDFDACF07E037FE812D8
:100B31000287AB07AA06EA3395E0F9F87F007E1039
:100B41007D0E7C00121253C3E49FFFE49EFE7401EC
:100B51009DFDE49CFCE4FB7A01F9F8121253AF030A
:100B61008F8A22AB66AA67A9689000061202E86420
:100B71000245F06003020C0C9000081202E86402C6
:100B810045F06003020C0C9000021202E8FDACF08B
:100B91007E037FE8120287AB07AA06EA3395E0F9E4
:100BA100F87F007E107D0E7C00121253C3E49FFF7C
:100BB100E49EFE74019DFDE49CFCE4FB7A01F9F8DE
:100BC1001212538F8DAB66AA67A9689000021202B8
:100BD100E8FDACF07E037FE8120287AB07AA06EAC4
:100BE1003395E0F9F87F007E107D0E7C00121253E0
:100BF100C3E49FFFE49EFE74019DFDE49CFCE4FBC5
:0C0C01007A01F9F8121253AF038F8B2216
:03000B000210865A
:10108600C0E0C0F0C083C082C0D075D000C000C030
:1010960001C002C003C004C005C006C00775380001
:1010A6007539017B007A007930853F82853E83124F
:1010B6000413AA3BA93C12040FD007D006D005D0D2
:1010C60004D003D002D001D000D0D0D082D083D0BB
:0410D600F0D0E03244
:03001B000210DAF6
:1010DA00C0E0C0F0C083C082C0D075D000C000C0DC
:1010EA0001C002C003C004C005C006C007753800AD
:1010FA007539027B007A007930853F82853E8312FA
:10110A000413AA3BA93C12040FD007D006D005D07D
:10111A0004D003D002D001D000D0D0D082D083D066
:04112A00F0D0E032EF
:10001E00020260E86480F8E933E83360110460F0AE
:10002E00ED33EC337009E8FCE9FDEAFEEBFF220448
:10003E0060DED3EB9FEA9EE99DE8C2E78CF0C2F743
:10004E0095F0400CE8CCF8E9CDF9EACEFAEBCFFB0F
:10005E0012022B85D0F05804700320D5B3E804703B
:10006E00075002B2D502026A92D5EC0460F7E4CCD6
:10007E00C0E0C398F8603B94186008400DD0E0FBD8
:10008E00020242E4FBFAC9FC8028E830E406E4C927
:10009E00FBE4CAFCE830E305E4C9CACBFCE854072C
:1000AE006010F8C3E913F9EA13FAEB13FBEC13FC37
:1000BE00D8F130F52FC3E49CFCEF9BFFEE9AFEEDDA
:1000CE0099FDD0E0FBEF4E4D4C701222DB03020285
:1000DE0067EC2CFCEF33FFEE33FEED33FDED30E736
:1000EE00EB020242EF2BFFEE3AFEED39FDD0E0FBC4
:1000FE0050130BBB000302026AED13FDEE13FEEF6D
:08010E0013FFEC13FC02024296
:1001160002026AEC5D046005E8590470030202609D
:1001260012022B580460F6EC4860F2EC7004FDFEF7
:10013600FF22C860DB2481C85009C39860025006BC
:100146000202679850CAF582E9294B4A7005AB82CC
:1001560002025675F0007C1A7880C3EF9BEE9AED8A
:1001660099400DC3EF9BFFEE9AFEED99FDE842F034
:10017600DC23ACF0D0E0FFD0E0FED0E0FDAB822087
:10018600E7101BEB60BAEC2CFCEF33FFEE33FEED11
:1001960033FD020242E803F830E705C0F075F000CF
:1001A600EF2FFFEE33FEED33FD40B830E7C280AAF5
:1001B60075F020800E75F010800575F0087D007EC4
:1001C600007F003392D530D50312034DEC33401037
:1001D600EF33FFEE33FEED33FDEC33FCD5F0ED22CD
:0E01E600E5F0247EA2D513CC92E7CDCEFF2209
:1001F400EDD2E7CD33EC3392D524814006E4FFFE03
:10020400FDFC22FCE4CFCECDCC24E0501174FF8061
:10021400EDC3CC13CCCD13CDCE13CECF13CF0470FE
:07022400F030D5DE02034DAE
:10022B00E9D2E7C933E833F892D5EDD2E7CD33EC19
:07023B0033FC5002B2D52292
:10024200EC30E7100FBF000C0EBE00080DBD00041D
:100252000BEB6014A2D5EB13FCED92E7FD2274FFC9
:10026200FCFDFEFF22E480F8A2D574FF13FC7D8022
:03027200E480EF36
:100F0C00021297E493A3F8E493A34003F68001F252
:100F1C0008DFF48029E493A3F85407240CC8C333E6
:100F2C00C4540F4420C8834004F456800146F6DFB5
:100F3C00E4800B010204081020408090120EE47E25
:100F4C00019360BCA3FF543F30E509541FFEE493AA
:100F5C00A360010ECF54C025E060A840B8E493A371
:100F6C00FAE493A3F8E493A3C8C582C8CAC583CA9C
:100F7C00F0A3C8C582C8CAC583CADFE9DEE780BE54
:01125200009B
:10027500EF8DF0A4A8F0CF8CF0A428CE8DF0A42E9D
:02028500FE2257
:10028700C2D5EC30E709B2D5E4C39DFDE49CFCEE92
:1002970030E715B2D5E4C39FFFE49EFE120415C3F1
:1002A700E49DFDE49CFC800312041530D507C3E4EC
:0602B7009FFFE49EFE2201
:1002BD00BB010A89828A83E0F5F0A3E0225006870C
:1002CD00F009E71922BBFE07E3F5F009E3192289CE
:0B02DD00828A83E493F5F07401932201
:1002E800BB0110E58229F582E5833AF583E0F5F054
:1002F800A3E0225009E92582F886F008E622BBFE31
:100308000AE92582F8E2F5F008E222E5832AF58376
:08031800E993F5F0A3E993223B
:10032000F8BB0111E58229F582E5833AF583E8F00F
:10033000E5F0A3F0225009E92582C8F608A6F022CC
:0D034000BBFE09E92582C8F2E5F008F222B3
:10125300C2D5E830E70FB2D5E4C39BFBE49AFAE4C6
:1012630099F9E498F8EC30E717B2D5121289120411
:10127300A6E4C39BFBE49AFAE499F9E498F88003A3
:101283001204A630D50DE4C39FFFE49EFEE49DFD4A
:04129300E49CFC22B9
:0E034D00C3E49FFFE49EFEE49DFDE49CFC22C1
:0C035B00A42582F582E5F03583F58322AD
:10036700BB011A89828A83D0F0D0E0F8D0E0F9D0B7
:10037700E0FAD0E0FBE8C0E0C0F00205415016E922
:10038700F8D083D082D0E0F9D0E0FAD0E0FBC08289
:10039700C083020538BBFE16E9F8D083D082D0E0CF
:0F03A700F9D0E0FAD0E0FBC082C08302054A2201
:1003B600BB0120E58229F582E5833AF583D0F0D0AA
:1003C600E0F8D0E0F9D0E0FAD0E0FBE8C0E0C0F019
:1003D6000205415018E92582F8D083D082D0E0F991
:1003E600D0E0FAD0E0FBC082C083020538BBFE181D
:1003F600E92582F8D083D082D0E0F9D0E0FAD0E0C7
:09040600FBC082C08302054A22FA
:06040F008A838982E47378
:10041500BC000BBE0029EF8DF084FFADF022E4CCCB
:10042500F875F008EF2FFFEE33FEEC33FCEE9DEC94
:10043500984005FCEE9DFE0FD5F0E9E4CEFD22EDDA
:10044500F8F5F0EE8420D21CFEADF075F008EF2F24
:10045500FFED33FD4007985006D5F0F222C398FD15
:050465000FD5F0EA22B2
:10046A0075F008758200EF2FFFEE33FECD33CDCC49
:10047A0033CCC58233C5829BED9AEC99E5829840CC
:10048A000CF582EE9BFEED9AFDEC99FC0FD5F0D6A9
:10049A00E4CEFBE4CDFAE4CCF9A88222B800C1B9D3
:1004AA000059BA002DEC8BF084CFCECDFCE5F0CB11
:1004BA00F97818EF2FFFEE33FEED33FDEC33FCEB4A
:1004CA0033FB10D703994004EB99FB0FD8E5E4F905
:1004DA00FA227818EF2FFFEE33FEED33FDEC33FCF2
:1004EA00C933C910D7059BE99A4007EC9BFCE99AE6
:1004FA00F90FD8E0E4C9FAE4CCFB2275F010EF2F2B
:10050A00FFEE33FEED33FDCC33CCC833C810D7072A
:10051A009BEC9AE899400AED9BFDEC9AFCE899F865
:0E052A000FD5F0DAE4CDFBE4CCFAE4C8F922F8
:09053800EBF608EAF608E9F622E8
:09054100EBF0A3EAF0A3E9F022BB
:09054A00EBF208EAF208E9F222E2
:00000001FF
