:03000000020A6D84
:0C0A6D00787FE4F6D8FD7581080206824F
:100A50000000000000000000000000000000000096
:10068200E47821F208F208F208F2087C007DFE7B91
:10069200FF7A0A7950FE7F101200D37BFE7A00792E
:1006A200121208617BFE7A0079001208F77822E2C2
:1006B200B4E81018E2B4030B7824E22401F218E241
:1006C2003400F27823E2FA08E2FB7C277D10FFAEC9
:1006D2000212010B7C007D0A12010B7825ECF20854
:1006E200EDF27C037DE8AF03AE0212010B7C007DCC
:1006F2000A12010B7827ECF208EDF27823E2FA08ED
:10070200E2FB7C007D64FFAE0212010B7C007D0ADD
:1007120012010B7829ECF208EDF27C007D0AAF039E
:10072200AE0212010B7C007D0A12010B782BECF257
:1007320008EDF27825E2FE08E2FF7C007D08120156
:100742000B781208E2FA08E2F5828A8312025E7BD3
:10075200FE7A007925C0027C007D047E007F01784C
:100762000308E2FA08E2F5828A83D00212025E7F6F
:10077200017E00120A2B7822E22401F218E23400F0
:10078200F2D308E294E818E264809483400FE4F222
:1007920008F2781E08E2FA08E2F912025AD3782423
:1007A200E2941018E2648094A750030206AFE4F2C8
:0507B20008F20206AF91
:0C0A60007F017E8E7D02DDFEDEFADFF6F7
:010A6C002267
:100A2B00AB07AA06EB1BAE0270011A4E6005120A49
:040A3B006080F122C4
:100861007835EBF208EAF208E9F27BFF7A09795868
:10087100C003C002C0017835E2FB08E2FA08E2F9E0
:100881001201B27BFF7A0979A0C003C002C00178CE
:1008910035E2FB08E2FA08E2F99000031202017B5B
:1008A100FF7A057948C003C002C0017835E2FB0830
:1008B100E2FA08E2F99000061202017BFF7A02795E
:1008C100D0C003C002C0017835E2FB08E2FA08E2B9
:1008D100F99000091202017BFF7A0A793FC003C037
:1008E10002C0017835E2FB08E2FA08E2F990000C57
:0608F100120201020A3FA1
:10095800EE7044EF14B40800503D90097075F00330
:10096800A4C58325F0C5837302098802098B02098F
:100978008E02099102099402099702099A02099DB7
:10098800C29022C29122C29222C29322C29422C24F
:080998009522C29622C29722AB
:1009A000EE7044EF14B40800503D9009B875F003A0
:1009B000A4C58325F0C583730209D00209D30209B7
:1009C000D60209D90209DC0209DF0209E20209E5BF
:1009D000D29022D29122D29222D29322D29422D2A7
:0809E0009522D29622D2972243
:1005480015081508A808EAF208EBF215081508A816
:1005580008ECF208EDF215081508A808EEF208EF05
:05056800F21508150862
:10056D00A808E4F208F2A8080808E2FE08E2FFEE87
:10057D00704BEF14B40800504490059475F003A42B
:10058D00C58325F0C583730205AC0205B00205B421
:10059D000205B80205BC0205C00205C40205C8C2A9
:1005AD0090801AC2918016C2928012C293800EC2A0
:1005BD0094800AC2958006C2968002C297E50824EF
:1005CD0004F8E2FE08E2FF120A2BA8080808E2FE72
:1005DD0008E2FFEE704BEF14B4080050449005F89C
:1005ED0075F003A4C58325F0C583730206100206BA
:1005FD001402061802061C02062002062402062812
:10060D0002062CD290801AD2918016D2928012D2EC
:10061D0093800ED294800AD2958006D2968002D213
:10062D0097E5082404F8E2FE08E2FF120A2BA80859
:10063D0008E22401F218E23400F2A808E2FC08E214
:10064D00FDE5082404F8E2FE08E2FF1200F9E508D2
:10065D002406F8E2FC08E2FDD39FEE6480F8EC641A
:0E066D0080984003020573ED4C700302057384
:07067B00E5082408F5082240
:1002D00015081508A808ECF208EDF2150815081520
:1002E00008A808EBF208EAF208E9F2E50824ECF5C0
:0102F0000805
:1002F100F8E4F208F2A8080808F208F2E508240474
:10030100F8E4F208F2E5082406F8E4F208F2E50858
:100311002408F8E4F208F2E508240AF8E4F208F205
:10032100E508240CF8E4F208F2E508240EF8E4F2FA
:1003310008F2E5082410F8E4F208F2E5082412F8BE
:10034100E4F208F2A808F208F2A808E2FE08E2FFC7
:10035100C39408EE6480948040030203F3EF25E028
:10036100FFEE33FEE5082414F8E2FB08E2FA08E2A6
:10037100F98F828E83120141FFE5F07066EF14B4AC
:100381000800505F90039375F003A4C58325F0C561
:1003910083730203AB0203B10203B70203BD02037D
:1003A100C30203C90203CF0203D5E5082404802850
:1003B100E50824068022E5082408801CE508240AB3
:1003C1008016E508240C8010E508240E800AE50853
:1003D10024108004E5082412F808E22401F218E24E
:1003E1003400F2A80808E22401F218E23400F20213
:1003F100034AE5082404F909E3700219E36002C223
:1004010090E5082406F909E3700219E36002C2913C
:10041100E5082408F909E3700219E36002C292E5D4
:1004210008240AF909E3700219E36002C293E5089E
:10043100240CF909E3700219E36002C294E508246F
:100441000EF909E3700219E36002C295E508241070
:10045100F909E3700219E36002C296E5082412F972
:1004610009E3700219E36002C297E5082417F8E274
:10047100FE08E2FF120A2BE5082404F909E37002E1
:1004810019E36002D290E5082406F909E370021924
:10049100E36002D291E5082408F909E3700219E347
:1004A1006002D292E508240AF909E3700219E360B7
:1004B10002D293E508240CF909E3700219E3600202
:1004C100D294E508240EF909E3700219E36002D21F
:1004D10095E5082410F909E3700219E36002D29648
:1004E100E5082412F909E3700219E36002D297E5E5
:1004F100082417F8E2FE08E2FF120A2BA8080808F0
:1005010008E22401F218E23400F2A8080808E2FC2B
:1005110008E2FDE5082417F8E2FE08E2FF1200F9FF
:10052100E5082419F8E2FC08E2FDD39FEE6480F8A7
:10053100EC64809840030203F3ED4C70030203F373
:07054100E508241BF5082268
:100A3F00D290D291D292D293D294D295D296D2977B
:010A4F002284
:100A14003F065B4F666D7D077F6F777C395E79712A
:070A2400FFFEFDFBF7EFDF11
:0A08F7007835EBF208EAF208E9F2A6
:10090100E4FF7835E2FB08E2FA08E2F990000675A7
:10091100F002EF1201A6E4F5F01201790FEFB4062F
:10092100E17BFF7A0979E8C003C002C0017835E2B2
:10093100FB08E2FA08E2F91201B27BFF7A0779B704
:10094100C003C002C0017835E2FB08E2FA08E2F90F
:06095100900003120201F8
:01095700227D
:1009E800D2A674142DF582740A3CF583E493F5803D
:1009F800C2A6900A24E493F580D2A774242FF58226
:0C0A0800740A3EF583E493F580C2A72237
:1007B700150815081508A808EBF208EAF208E9F287
:1007C70015081508A808ECF208EDF215081508A891
:0A07D70008EEF208EFF2150815080D
:1007E100A808E4F20804F2A8080808E2FF08E2A851
:1007F10008CFF208EFF2E5082404F8E2FC08E2FD74
:10080100A808E2FE08E2FFD39DEC6480F8EE648064
:10081100985046C006C007EF24FFFDEE34FFFCED03
:1008210025E0FDEC33FCE5082406F8E2FB08E2FADA
:1008310008E2F98D828C83120141FDACF0D007D022
:10084100061209E87F017E00120A2BA80808E2249B
:0908510001F218E23400F2809D6E
:07085A00E5082409F508225E
:10000300E709F608DFFA8046E709F208DFFA803EDF
:1000130088828C83E709F0A3DFFA8032E309F608CC
:10002300DFFA8078E309F208DFFA807088828C8334
:10003300E309F0A3DFFA806489828A83E0A3F608E8
:10004300DFFA805889828A83E0A3F208DFFA804CC2
:1000530080D280FA80C680D4806980F28033801099
:1000630080A680EA809A80A880DA80E280CA803302
:1000730089828A83ECFAE493A3C8C582C8CCC5837A
:10008300CCF0A3C8C582C8CCC583CCDFE9DEE7804A
:100093000D89828A83E493A3F608DFF9ECFAA9F0C9
:1000A300EDFB2289828A83ECFAE0A3C8C582C8CC1F
:1000B300C583CCF0A3C8C582C8CCC583CCDFEADE38
:1000C300E880DB89828A83E493A3F208DFF980CC9A
:1000D30088F0EF60010E4E60C388F0ED2402B40493
:1000E3000050B9F582EB2402B4040050AF2323453A
:0600F3008223900053730C
:1000F900EF8DF0A4A8F0CF8CF0A428CE8DF0A42E1B
:02010900FE22D4
:10010B00C2D5EC30E709B2D5E4C39DFDE49CFCEE0F
:10011B0030E715B2D5E4C39FFFE49EFE120260C325
:10012B00E49DFDE49CFC800312026030D507C3E420
:06013B009FFFE49EFE227E
:10014100BB0110E58229F582E5833AF583E0F5F0FC
:10015100A3E0225009E92582F886F008E622BBFED9
:100161000AE92582F8E2F5F008E222E5832AF5831F
:08017100E993F5F0A3E99322E4
:10017900F8BB0111E58229F582E5833AF583E8F0B8
:10018900E5F0A3F0225009E92582C8F608A6F02275
:0D019900BBFE09E92582C8F2E5F008F2225C
:0C01A600A42582F582E5F03583F5832264
:1001B200BB011A89828A83D0F0D0E0F8D0E0F9D06E
:1001C200E0FAD0E0FBE8C0E0C0F00202BE5016E95F
:1001D200F8D083D082D0E0F9D0E0FAD0E0FBC08240
:1001E200C0830202B5BBFE16E9F8D083D082D0E00C
:0F01F200F9D0E0FAD0E0FBC082C0830202C7223E
:10020100BB0120E58229F582E5833AF583D0F0D060
:10021100E0F8D0E0F9D0E0FAD0E0FBE8C0E0C0F0CF
:100221000202BE5018E92582F8D083D082D0E0F9CD
:10023100D0E0FAD0E0FBC082C0830202B5BBFE1859
:10024100E92582F8D083D082D0E0F9D0E0FAD0E07D
:09025100FBC082C0830202C72237
:06025A008A838982E4732F
:10026000BC000BBE0029EF8DF084FFADF022E4CC82
:10027000F875F008EF2FFFEE33FEEC33FCEE9DEC4B
:10028000984005FCEE9DFE0FD5F0E9E4CEFD22ED91
:10029000F8F5F0EE8420D21CFEADF075F008EF2FDB
:1002A000FFED33FD4007985006D5F0F222C398FDCC
:0502B0000FD5F0EA2269
:0902B500EBF608EAF608E9F6226E
:0902BE00EBF0A3EAF0A3E9F02241
:0902C700EBF208EAF208E9F22268
:00000001FF
