:0300000002095F93
:0C095F00787FE4F6D8FD7581400209A6FF
:060C0600000000000000E8
:1006A200752D00752E01782F7C007D007BFF7A0C62
:1006B20079067E007F061200D3E4F535F536FB7A23
:1006C20000791A1209EB7B007A007929120B757BEB
:1006D200007A007908120A69AA27A92812027CAABC
:1006E2002AA92B12027C8F2CE52C602C052EE52EDC
:1006F2007002052DD39408E52D6480948040137513
:100702002D00752E01851F82851E837F087E0012B3
:100712000280753500852C36851C82851B83AF2EA1
:10072200AE2D120280E52E24FFFFE52D34FFFE855B
:100732001F82851E83120280E53624FBFDE53534D7
:10074200FFFCAF05FE12011BAA06AB077C007D640D
:1007520012012D7C007D0A12012D8C2F8D307C0020
:100762007D0AAF03AE0212012D7C007D0A12012D1B
:100772008C318D32E53624FBFDE53534FFFCE53660
:1007820024FBFFE53534FFFE12011B7C007D0A12BB
:10079200012D8C338D347B007A00792F7C007D0310
:1007A2007E007F01850D82850C831202800206E1A4
:0C0BF0007F017E8E7D02DDFEDEFADFF666
:010BFC0022D6
:100B9D008E3A8F3BE53B153BAE3A7002153A4E60EF
:070BAD0005120BFD80EE2292
:100BCB00AB07AA06EB1BAE0270011A4E6005120BA7
:040BDB00F080F12293
:080BFD007F017E02DEFEDFFA3B
:010C050022CC
:040C0C00023E0000A4
:1009EB008B378A3889397BFF7A0A79B9C003C00201
:1009FB00C001AB37AA38A9391201D47BFF7A0B7926
:100A0B0001C003C002C001AB37AA38A9399000035B
:100A1B001202237BFF7A057980C003C002C001ABB1
:100A2B0037AA38A9399000061202237BFF7A027984
:100A3B00F2C003C002C001AB37AA38A93990000934
:100A4B001202237BFF7A0B79DFC003C002C001AB1C
:0E0A5B0037AA38A93990000C120223020BDFD3
:100AB900EE7044EF14B40800503D900AD175F0036C
:100AC900A4C58325F0C58373020AE9020AEC020A68
:100AD900EF020AF2020AF5020AF8020AFB020AFE0A
:100AE900C29022C29122C29222C29322C29422C2ED
:080AF9009522C29622C2972249
:100B0100EE7044EF14B40800503D900B1975F003DA
:100B1100A4C58325F0C58373020B31020B34020B8C
:100B210037020B3A020B3D020B40020B43020B460C
:100B3100D29022D29122D29222D29322D29422D244
:080B41009522D29622D29722E0
:1005800015401540A840A60208A60315401540A82E
:1005900040A60408A60515401540A840A60608A6D2
:0105A0000753
:1005A100A840E6FE08E6FFEE704BEF14B4080050D9
:1005B100449005C075F003A4C58325F0C58373027B
:1005C10005D80205DC0205E00205E40205E80205A2
:1005D100EC0205F00205F4C290801AC2918016C2A5
:1005E100928012C293800EC294800AC2958006C284
:1005F100968002C297A8400808E6FE08E6FF120BA3
:10060100CBA840E6FE08E6FFEE704BEF14B40800FD
:10061100504490062175F003A4C58325F0C583736A
:1006210002063902063D020641020645020649025A
:10063100064D020651020655D290801AD2918016BB
:10064100D2928012D293800ED294800AD2958006E3
:10065100D2968002D297A8400808E6FE08E6FF126B
:100661000BCB053FE53F7002053EAC3EFDA84008BF
:1006710008E6FE08E6FF12011BE5402404F8E6FC4B
:1006810008E6FDC3EF9DEC6480F8EE6480985003AA
:0A0691000205A1ED4C70030205A163
:07069B00E5402406F54022B2
:1002F20015401540A840A60408A60515401540154E
:1003020040A840A60308A60208A601E54024ECF591
:0103120040AA
:10031300F8E4F608F6A8400808F608F6E5402404D1
:10032300F8E4F608F6E5402406F8E4F608F6E540B6
:100333002408F8E4F608F6E540240AF8E4F608F69B
:10034300E540240CF8E4F608F6E540240EF8E4F65C
:1003530008F6E5402410F8E4F608F6E5402412F820
:10036300E4F608F6A840F608F6A840E6FE08E6FF1D
:10037300C39408EE64809480400302044DEF25E0AB
:10038300FFEE33FEE5402414F8860308E6FA08E698
:10039300F98F828E83120163FFE5F060030204414B
:1003A300EF14B4080040030204419003BB75F0034B
:1003B300A4C58325F0C583730203D30203E10203BB
:1003C300EF0203FD02040B020419020427020435A1
:1003D300E5402404F80806E6187063068060E540EB
:1003E3002406F80806E6187055068052E5402408EE
:1003F300F80806E6187047068044E540240AF80822
:1004030006E6187039068036E540240CF80806E63F
:1004130018702B068028E540240EF80806E61870AD
:100423001D06801AE5402410F80806E618700F062A
:10043300800CE5402412F80806E618700106A8406F
:100443000806E61870010602036CE5402404F90966
:10045300E719476002C290E5402406F909E7194706
:100463006002C291E5402408F909E719476002C216
:1004730092E540240AF909E719476002C293E5406F
:10048300240CF909E719476002C294E540240EF9E8
:1004930009E719476002C295E5402410F909E719F5
:1004A300476002C296E5402412F909E71947600242
:1004B300C297E5402417F8E6FE08E6FF120BCBE5EA
:1004C300402404F909E719476002D290E540240665
:1004D300F909E719476002D291E5402408F909E7D1
:1004E30019476002D292E540240AF909E7194760E7
:1004F30002D293E540240CF909E719476002D2942C
:10050300E540240EF909E719476002D295E5402436
:1005130010F909E719476002D296E5402412F90958
:10052300E719476002D297E5402417F8E6FE08E68C
:10053300FF120BCBA84008080806E618700106A8AE
:10054300400808E6FC08E6FDE5402417F8E6FE0847
:10055300E6FF12011BE5402419F8E6FC08E6FDC39B
:10056300EF9DEC6480F8EE648098500302044DED37
:060573004C700302044D70
:07057900E540241BF54022C0
:100BDF00D290D291D292D293D294D295D296D297DA
:010BEF0022E3
:100B75008B378A3889397BFF7A0779B2C003C0027F
:100B8500C001AB37AA38A9391201D4AB37AA38A9A5
:080B950039900003E40200F9AD
:1007B200E4F53AF53BF53CF53D75B0FF20B4117F09
:1007C2000AFE120BCB20B40830B4FD7E007F022259
:1007D20020B5127F0A7E00120BCB20B50830B5FD82
:1007E2007E007F032220B6127F0A7E00120BCB20EE
:1007F200B60830B6FD7E007F042220B7127F0A7E43
:1008020000120BCB20B70830B7FD7E007F052275A2
:10081200B00FE5B0640F60777F0A7E00120BCBE564
:10082200B0640F606A75B00FAFB0EF24F960232493
:10083200FC601724FE600B14701E753A00753B06AF
:100842008016753A00753B0A800E753A00753B0EAC
:100852008006753A00753B1275B0F0AFB0EF249088
:10086200602224C0601A24E0600C24F07021853AD2
:100872003A853B3B8019053BE53B7013053A800FF7
:10088200740280027403253BF53BE4353AF53AC322
:10089200E53D9464E53C648094805017E5B064F0D3
:1008A20060117F017E00120BCB053DE53D70E00536
:0708B2003C80DCAE3AAF3BD5
:0108B900221C
:100BB4003F065B4F666D7D077F6F777C395E797189
:070BC400FFFEFDFBF7EFDF70
:060A69008B378A38893941
:100A6F00E4FFAB37AA38A93990000675F002EF12F0
:100A7F0001C8E4F5F012019B0FBF06E67BFF7A0B6E
:100A8F007949C003C002C001AB37AA38A939120196
:100A9F00D47BFF7A0879BAC003C002C001AB37AA72
:090AAF0038A9399000031202235A
:010AB800221B
:100B4900D2A674B42DF582740B3CF583E493F58039
:100B5900C2A6900BC4E493F580D2A774C42FF58282
:0C0B6900740B3EF583E493F580C2A722D4
:1008BA00154015401540A840A60308A60208A6013F
:1008CA0015401540A840A60408A60515401540A8DD
:0A08DA0040A60608A60715401540C9
:1008E400A8407600087601A8400808E6FE08E6FF5E
:1008F400A840A60608A607E5402404F9A840E6FE99
:1009040008E6FFD3099719E76480F8EE64809850ED
:1009140043C006C007EF24FFFDEE34FFFCED25E0E5
:10092400FDEC33FCE5402406F8860308E6FA08E605
:10093400F98D828C83120163FDACF0D007D00612CE
:100944000B497F0A7E00120B9DA8400806E618702A
:04095400A60680A3D0
:07095800E5402409F54022EF
:10096B000206A2E493A3F8E493A34003F68001F2FA
:10097B0008DFF48029E493A3F85407240CC8C3338D
:10098B00C4540F4420C8834004F456800146F6DF5C
:10099B00E4800B0102040810204080900C0CE47ED4
:1009AB00019360BCA3FF543F30E509541FFEE49351
:1009BB00A360010ECF54C025E060A840B8E493A318
:1009CB00FAE493A3F8E493A3C8C582C8CAC583CA43
:1009DB00F0A3C8C582C8CAC583CADFE9DEE780BEFB
:010C100000E3
:10000300E709F608DFFA8046E709F208DFFA803EDF
:1000130088828C83E709F0A3DFFA8032E309F608CC
:10002300DFFA8078E309F208DFFA807088828C8334
:10003300E309F0A3DFFA806489828A83E0A3F608E8
:10004300DFFA805889828A83E0A3F208DFFA804CC2
:1000530080D280FA80C680D4806980F28033801099
:1000630080A680EA809A80A880DA80E280CA803302
:1000730089828A83ECFAE493A3C8C582C8CCC5837A
:10008300CCF0A3C8C582C8CCC583CCDFE9DEE7804A
:100093000D89828A83E493A3F608DFF9ECFAA9F0C9
:1000A300EDFB2289828A83ECFAE0A3C8C582C8CC1F
:1000B300C583CCF0A3C8C582C8CCC583CCDFEADE38
:1000C300E880DB89828A83E493A3F208DFF980CC9A
:1000D30088F0EF60010E4E60C388F0ED2402B40493
:1000E3000050B9F582EB2402B4040050AF2323453A
:0600F3008223900053730C
:1000F900F8BB010DE58229F582E5833AF583E8F03D
:10010900225006E92582C8F622BBFE05E92582C8E8
:02011900F222D0
:10011B00EF8DF0A4A8F0CF8CF0A428CE8DF0A42EF8
:02012B00FE22B2
:10012D00C2D5EC30E709B2D5E4C39DFDE49CFCEEED
:10013D0030E715B2D5E4C39FFFE49EFE120282C3E1
:10014D00E49DFDE49CFC800312028230D507C3E4DC
:06015D009FFFE49EFE225C
:10016300BB0110E58229F582E5833AF583E0F5F0DA
:10017300A3E0225009E92582F886F008E622BBFEB7
:100183000AE92582F8E2F5F008E222E5832AF583FD
:08019300E993F5F0A3E99322C2
:10019B00F8BB0111E58229F582E5833AF583E8F096
:1001AB00E5F0A3F0225009E92582C8F608A6F02253
:0D01BB00BBFE09E92582C8F2E5F008F2223A
:0C01C800A42582F582E5F03583F5832242
:1001D400BB011A89828A83D0F0D0E0F8D0E0F9D04C
:1001E400E0FAD0E0FBE8C0E0C0F00202E05016E91B
:1001F400F8D083D082D0E0F9D0E0FAD0E0FBC0821E
:10020400C0830202D7BBFE16E9F8D083D082D0E0C7
:0F021400F9D0E0FAD0E0FBC082C0830202E922F9
:10022300BB0120E58229F582E5833AF583D0F0D03E
:10023300E0F8D0E0F9D0E0FAD0E0FBE8C0E0C0F0AD
:100243000202E05018E92582F8D083D082D0E0F989
:10025300D0E0FAD0E0FBC082C0830202D7BBFE1815
:10026300E92582F8D083D082D0E0F9D0E0FAD0E05B
:09027300FBC082C0830202E922F3
:06027C008A838982E4730D
:10028200BC000BBE0029EF8DF084FFADF022E4CC60
:10029200F875F008EF2FFFEE33FEEC33FCEE9DEC29
:1002A200984005FCEE9DFE0FD5F0E9E4CEFD22ED6F
:1002B200F8F5F0EE8420D21CFEADF075F008EF2FB9
:1002C200FFED33FD4007985006D5F0F222C398FDAA
:0502D2000FD5F0EA2247
:0902D700EBF608EAF608E9F6224C
:0902E000EBF0A3EAF0A3E9F0221F
:0902E900EBF208EAF208E9F22246
:00000001FF
