:030000000209767C
:0C097600787FE4F6D8FD7581400209BDD1
:060C1D00000000000000D1
:10058000752D00752E01782F7C007D007BFF7A0C85
:10059000791D7E007F061200D3E4F535F536FB7A2F
:1005A00000791A120A027B007A007929120B8C7BDF
:1005B000007A007908120A80AA27A92812027CAAC8
:1005C0002AA92B12027C8F2CE52C602C052EE52EFF
:1005D0007002052DD39408E52D6480948040137536
:1005E0002D00752E01851F82851E837F087E0012D7
:1005F0000280753500852C36851C82851B83AF2EC5
:10060000AE2D120280E52E24FFFFE52D34FFFE857E
:100610001F82851E83120280E5364535700EF52F48
:10062000F530F531F532F533F534805EE53624FBEF
:10063000FDE53534FFFCAF05FE12011BAA06AB0732
:100640007C007D6412012D7C007D0A12012D8C2F0F
:100650008D307C007D0AAF03AE0212012D7C007D3F
:100660000A12012D8C318D32E53624FBFDE535343F
:10067000FFFCE53624FBFFE53534FFFE12011B7C51
:10068000007D0A12012D8C338D347B007A00792F86
:100690007C007D037E007F01850D82850C83120224
:0406A000800205BF10
:0C0C07007F017E8E7D02DDFEDEFADFF64E
:010C130022BE
:100BB4008E3A8F3BE53B153BAE3A7002153A4E60D8
:070BC40005120C1480EE2263
:100BE200AB07AA06EB1BAE0270011A4E6005120C8F
:040BF2000780F12265
:080C14007F017E02DEFEDFFA23
:010C1C0022B5
:040C2300023E00008D
:100A02008B378A3889397BFF7A0A79D0C003C002D2
:100A1200C001AB37AA38A9391201D47BFF7A0B790E
:100A220018C003C002C001AB37AA38A9399000032D
:100A32001202237BFF7A0679A4C003C002C001AB75
:100A420037AA38A9399000061202237BFF7A02796D
:100A5200F2C003C002C001AB37AA38A9399000091D
:100A62001202237BFF7A0B79F6C003C002C001ABEE
:0E0A720037AA38A93990000C120223020BF6A5
:100AD000EE7044EF14B40800503D900AE875F0033E
:100AE000A4C58325F0C58373020B00020B03020B20
:100AF00006020B09020B0C020B0F020B12020B1564
:100B0000C29022C29122C29222C29322C29422C2D5
:080B10009522C29622C2972231
:100B1800EE7044EF14B40800503D900B3075F003AC
:100B2800A4C58325F0C58373020B48020B4B020B47
:100B38004E020B51020B54020B57020B5A020B5D6B
:100B4800D29022D29122D29222D29322D29422D22D
:080B58009522D29622D29722C9
:1006A40015401540A840A60208A60315401540A809
:1006B40040A60408A60515401540A840A60608A6AD
:0106C400072E
:1006C500A840E6FE08E6FFEE704BEF14B4080050B4
:1006D500449006E475F003A4C58325F0C583730231
:1006E50006FC02070002070402070802070C0207BE
:1006F50010020714020718C290801AC2918016C210
:10070500928012C293800EC294800AC2958006C25E
:10071500968002C297A8400808E6FE08E6FF120B7D
:10072500E2A840E6FE08E6FFEE704BEF14B40800C1
:10073500504490074575F003A4C58325F0C5837320
:1007450002075D02076102076502076902076D027C
:100755000771020775020779D290801AD291801627
:10076500D2928012D293800ED294800AD2958006BE
:10077500D2968002D297A8400808E6FE08E6FF1246
:100785000BE2053FE53F7002053EAC3EFDA8400883
:1007950008E6FE08E6FF12011BE5402404F8E6FC26
:1007A50008E6FDC3EF9DEC6480F8EE648098500385
:0A07B5000206C5ED4C70030206C5F4
:0707BF00E5402406F540228D
:1002F20015401540A840A60408A60515401540154E
:1003020040A840A60308A60208A601E54024ECF591
:0103120040AA
:10031300F8E4F608F6A8400808F608F6E5402404D1
:10032300F8E4F608F6E5402406F8E4F608F6E540B6
:100333002408F8E4F608F6E540240AF8E4F608F69B
:10034300E540240CF8E4F608F6E540240EF8E4F65C
:1003530008F6E5402410F8E4F608F6E5402412F820
:10036300E4F608F6A840F608F6A840E6FE08E6FF1D
:10037300C39408EE64809480400302044DEF25E0AB
:10038300FFEE33FEE5402414F8860308E6FA08E698
:10039300F98F828E83120163FFE5F060030204414B
:1003A300EF14B4080040030204419003BB75F0034B
:1003B300A4C58325F0C583730203D30203E10203BB
:1003C300EF0203FD02040B020419020427020435A1
:1003D300E5402404F80806E6187063068060E540EB
:1003E3002406F80806E6187055068052E5402408EE
:1003F300F80806E6187047068044E540240AF80822
:1004030006E6187039068036E540240CF80806E63F
:1004130018702B068028E540240EF80806E61870AD
:100423001D06801AE5402410F80806E618700F062A
:10043300800CE5402412F80806E618700106A8406F
:100443000806E61870010602036CE5402404F90966
:10045300E719476002C290E5402406F909E7194706
:100463006002C291E5402408F909E719476002C216
:1004730092E540240AF909E719476002C293E5406F
:10048300240CF909E719476002C294E540240EF9E8
:1004930009E719476002C295E5402410F909E719F5
:1004A300476002C296E5402412F909E71947600242
:1004B300C297E5402417F8E6FE08E6FF120BE2E5D3
:1004C300402404F909E719476002D290E540240665
:1004D300F909E719476002D291E5402408F909E7D1
:1004E30019476002D292E540240AF909E7194760E7
:1004F30002D293E540240CF909E719476002D2942C
:10050300E540240EF909E719476002D295E5402436
:1005130010F909E719476002D296E5402412F90958
:10052300E719476002D297E5402417F8E6FE08E68C
:10053300FF120BE2A84008080806E618700106A897
:10054300400808E6FC08E6FDE5402417F8E6FE0847
:10055300E6FF12011BE5402419F8E6FC08E6FDC39B
:10056300EF9DEC6480F8EE648098500302044DED37
:060573004C700302044D70
:07057900E540241BF54022C0
:100BF600D290D291D292D293D294D295D296D297C3
:010C060022CB
:100B8C008B378A3889397BFF7A0779C6C003C00254
:100B9C00C001AB37AA38A9391201D4AB37AA38A98E
:080BAC0039900003E40200F996
:1007C600E4F53AF53BF53CF53D75B0FF20B4117FF5
:1007D6000AFE120BE220B40830B4FD7E007F02222E
:1007E60020B5127F0A7E00120BE220B50830B5FD57
:1007F6007E007F032220B6127F0A7E00120BE220C3
:10080600B60830B6FD7E007F042220B7127F0A7E2E
:1008160000120BE220B70830B7FD7E007F05227577
:10082600B00FE5B0640F70030208CC7F0A7E001299
:100836000BE2E5B0640F606A75B00FAFB0EF24F954
:10084600602324FC601724FE600B14701E753A00AA
:10085600753B068016753A00753B0A800E753A00A0
:10086600753B0E8006753A00753B1275B0F0AFB059
:10087600EF2490602224C0601A24E0600C24F070FB
:1008860021853A3A853B3B8019053BE53B701305CC
:100896003A800F740280027403253BF53BE4353A37
:1008A600F53AC3E53D9464E53C648094805017E5D1
:1008B600B064F060117F017E00120BE2053DE53D5C
:0A08C60070E0053C80DCAE3AAF3B69
:0108D0002205
:100BCB003F065B4F666D7D077F6F777C395E797172
:070BDB00FFFEFDFBF7EFDF59
:060A80008B378A3889392A
:100A8600E4FFAB37AA38A93990000675F002EF12D9
:100A960001C8E4F5F012019B0FBF06E67BFF7A0B57
:100AA6007960C003C002C001AB37AA38A939120168
:100AB600D47BFF7A0879D1C003C002C001AB37AA44
:090AC60038A93990000312022343
:010ACF002204
:100B6000D2A674CB2DF582740B3CF583E493F5800B
:100B7000C2A6900BDBE493F580D2A774DB2FF5823D
:0C0B8000740B3EF583E493F580C2A722BD
:1008D100154015401540A840A60308A60208A60128
:1008E10015401540A840A60408A60515401540A8C6
:0A08F10040A60608A60715401540B2
:1008FB00A8407600087601A8400808E6FE08E6FF47
:10090B00A840A60608A607E5402404F9A840E6FE81
:10091B0008E6FFD3099719E76480F8EE64809850D6
:10092B0043C006C007EF24FFFDEE34FFFCED25E0CE
:10093B00FDEC33FCE5402406F8860308E6FA08E6EE
:10094B00F98D828C83120163FDACF0D007D00612B7
:10095B000B607F0A7E00120BB4A8400806E61870E5
:04096B00A60680A3B9
:07096F00E5402409F54022D8
:10098200020580E493A3F8E493A34003F68001F206
:1009920008DFF48029E493A3F85407240CC8C33376
:1009A200C4540F4420C8834004F456800146F6DF45
:1009B200E4800B0102040810204080900C23E47EA6
:1009C200019360BCA3FF543F30E509541FFEE4933A
:1009D200A360010ECF54C025E060A840B8E493A301
:1009E200FAE493A3F8E493A3C8C582C8CAC583CA2C
:1009F200F0A3C8C582C8CAC583CADFE9DEE780BEE4
:010C270000CC
:10000300E709F608DFFA8046E709F208DFFA803EDF
:1000130088828C83E709F0A3DFFA8032E309F608CC
:10002300DFFA8078E309F208DFFA807088828C8334
:10003300E309F0A3DFFA806489828A83E0A3F608E8
:10004300DFFA805889828A83E0A3F208DFFA804CC2
:1000530080D280FA80C680D4806980F28033801099
:1000630080A680EA809A80A880DA80E280CA803302
:1000730089828A83ECFAE493A3C8C582C8CCC5837A
:10008300CCF0A3C8C582C8CCC583CCDFE9DEE7804A
:100093000D89828A83E493A3F608DFF9ECFAA9F0C9
:1000A300EDFB2289828A83ECFAE0A3C8C582C8CC1F
:1000B300C583CCF0A3C8C582C8CCC583CCDFEADE38
:1000C300E880DB89828A83E493A3F208DFF980CC9A
:1000D30088F0EF60010E4E60C388F0ED2402B40493
:1000E3000050B9F582EB2402B4040050AF2323453A
:0600F3008223900053730C
:1000F900F8BB010DE58229F582E5833AF583E8F03D
:10010900225006E92582C8F622BBFE05E92582C8E8
:02011900F222D0
:10011B00EF8DF0A4A8F0CF8CF0A428CE8DF0A42EF8
:02012B00FE22B2
:10012D00C2D5EC30E709B2D5E4C39DFDE49CFCEEED
:10013D0030E715B2D5E4C39FFFE49EFE120282C3E1
:10014D00E49DFDE49CFC800312028230D507C3E4DC
:06015D009FFFE49EFE225C
:10016300BB0110E58229F582E5833AF583E0F5F0DA
:10017300A3E0225009E92582F886F008E622BBFEB7
:100183000AE92582F8E2F5F008E222E5832AF583FD
:08019300E993F5F0A3E99322C2
:10019B00F8BB0111E58229F582E5833AF583E8F096
:1001AB00E5F0A3F0225009E92582C8F608A6F02253
:0D01BB00BBFE09E92582C8F2E5F008F2223A
:0C01C800A42582F582E5F03583F5832242
:1001D400BB011A89828A83D0F0D0E0F8D0E0F9D04C
:1001E400E0FAD0E0FBE8C0E0C0F00202E05016E91B
:1001F400F8D083D082D0E0F9D0E0FAD0E0FBC0821E
:10020400C0830202D7BBFE16E9F8D083D082D0E0C7
:0F021400F9D0E0FAD0E0FBC082C0830202E922F9
:10022300BB0120E58229F582E5833AF583D0F0D03E
:10023300E0F8D0E0F9D0E0FAD0E0FBE8C0E0C0F0AD
:100243000202E05018E92582F8D083D082D0E0F989
:10025300D0E0FAD0E0FBC082C0830202D7BBFE1815
:10026300E92582F8D083D082D0E0F9D0E0FAD0E05B
:09027300FBC082C0830202E922F3
:06027C008A838982E4730D
:10028200BC000BBE0029EF8DF084FFADF022E4CC60
:10029200F875F008EF2FFFEE33FEEC33FCEE9DEC29
:1002A200984005FCEE9DFE0FD5F0E9E4CEFD22ED6F
:1002B200F8F5F0EE8420D21CFEADF075F008EF2FB9
:1002C200FFED33FD4007985006D5F0F222C398FDAA
:0502D2000FD5F0EA2247
:0902D700EBF608EAF608E9F6224C
:0902E000EBF0A3EAF0A3E9F0221F
:0902E900EBF208EAF208E9F22246
:00000001FF
