:0300000002053EB8
:0C053E00787FE4F6D8FD75810802030305
:1004500049204C4F5645204348494E4121005757AB
:10046000572E54584D43552E434F4D0048656C6CE4
:100470006F202065766572796F6E65210057656C17
:0E048000636F6D6520746F20686572652100E2
:100303007BFE7A0079061203967BFE7A007900124F
:1003130003F77D807BFF7A047950C002780308E2FB
:10032300FA08E2F5828A83D0021201667DC07BFF60
:100333007A04795EC002780308E2FA08E2F5828A59
:1003430083D0021201667FD07E0712051D78000854
:10035300E2FA08E2F5828A837F011201667D807BDF
:10036300FF7A04796CC002780308E2FA08E2F582A6
:100373008A83D0021201667DC07BFF7A04797DC037
:1003830002780308E2FA08E2F5828A83D0021201B6
:030393006680FE83
:0C0531007F017E8E7D02DDFEDEFADFF62B
:01053D00229B
:10051D00AB07AA06EB1BAE0270011A4E6005120561
:04052D003180F12206
:1004BA00D3EF9400EE940040147D6E7C00ED1D7025
:0D04CA00011CED4C70F7EF1F70E61E80E383
:0104D7002202
:1004D8003F065B4F666D7D077F6F777C395E79716C
:0704E800FFFEFDFBF7EFDF53
:0A0396007818EBF208EAF208E9F229
:1003A000E4FF7818E2FB08E2FA08E2F9900006752B
:1003B000F002EF1200AEE4F5F01200810FEFB40688
:1003C000E17BFF7A04798EC003C002C0017818E295
:1003D000FB08E2FA08E2F91200BA7BFF7A027959C7
:1003E000C003C002C0017818E2FB08E2FA08E2F993
:0603F00090000312010958
:0103F60022E4
:10048E00D2A674D82DF58274043CF583E493F580DE
:10049E00C2A69004E8E493F580D2A774E82FF58203
:0C04AE0074043EF583E493F580C2A7229D
:10025900150815081508A808EBF208EAF208E9F2EA
:1002690015081508A808ECF208EDF215081508A8F4
:0A02790008EEF208EFF21508150870
:10028300A808E4F20804F2A8080808E2FF08E2A8B4
:1002930008CFF208EFF2E5082404F8E2FC08E2FDD7
:1002A300A808E2FE08E2FFD39DEC6480F8EE6480C8
:1002B300985046C006C007EF24FFFDEE34FFFCED67
:1002C30025E0FDEC33FCE5082406F8E2FB08E2FA3E
:1002D30008E2F98D828C83120049FDACF0D007D07F
:1002E3000612048E7F017E0012051DA80808E22471
:0902F30001F218E23400F2809DD2
:0702FC00E5082409F50822C2
:1003F7007818EBF208EAF208E9F27BFF7A0479EF62
:10040700C003C002C0017818E2FB08E2FA08E2F96B
:100417001200BA7BFF7A017983C003C002C001785A
:1004270018E2FB08E2FA08E2F9900003120109C298
:10043700B4C2A6C2A77F381204EF7F0C1204EF7F65
:09044700061204EF7F010204EF2C
:1004EF00C2B58F807F057E001204BAD2B47F057E1D
:0704FF00001204BAC2B4228E
:10050600D2B58F807F057E001204BAD2B47F057EF5
:07051600001204BAC2B42276
:100183001508A808EDF2150815081508A808EBF2DC
:0C01930008EAF208E9F2E50824F9F50892
:10019F00F8E4F208F2A8080808F208F2E5082407C4
:1001AF00F8E2FB08E2FA08E2F9E5082404F8EBF2BA
:1001BF0008EAF208E9F2E5082404F8E2FB08E2FA9B
:1001CF0008E2F9120003601EA80808E22401F218E1
:1001DF00E23400F2E5082404F80808E22401F218DA
:1001EF00E23400F280D0E508240AF8E2FF1204EFAF
:1001FF00A8080808E4F208F2A808E2FE08E2FFA83F
:10020F00080808E2FC08E2FDC39FEE6480F8EC6486
:10021F008098502FE5082407F8E2FB08E2FA08E27D
:10022F00F98D828C8312001CFF1205067F057E005C
:10023F001204BAA808080808E22401F218E23400F0
:03024F00F280B585
:07025200E508240BF508226A
:10000300BB010689828A83E0225002E722BBFE02FB
:09001300E32289828A83E493222E
:10001C00BB010CE58229F582E5833AF583E0225099
:10002C0006E92582F8E622BBFE06E92582F8E222E3
:0D003C00E58229F582E5833AF583E49322FD
:10004900BB0110E58229F582E5833AF583E0F5F0F5
:10005900A3E0225009E92582F886F008E622BBFED2
:100069000AE92582F8E2F5F008E222E5832AF58318
:08007900E993F5F0A3E99322DD
:10008100F8BB0111E58229F582E5833AF583E8F0B1
:10009100E5F0A3F0225009E92582C8F608A6F0226E
:0D00A100BBFE09E92582C8F2E5F008F22255
:0C00AE00A42582F582E5F03583F583225D
:1000BA00BB011A89828A83D0F0D0E0F8D0E0F9D067
:1000CA00E0FAD0E0FBE8C0E0C0F00201715016E9A6
:1000DA00F8D083D082D0E0F9D0E0FAD0E0FBC08239
:1000EA00C083020168BBFE16E9F8D083D082D0E053
:0F00FA00F9D0E0FAD0E0FBC082C08302017A2285
:10010900BB0120E58229F582E5833AF583D0F0D059
:10011900E0F8D0E0F9D0E0FAD0E0FBE8C0E0C0F0C8
:100129000201715018E92582F8D083D082D0E0F914
:10013900D0E0FAD0E0FBC082C083020168BBFE18A0
:10014900E92582F8D083D082D0E0F9D0E0FAD0E076
:09015900FBC082C08302017A227E
:060162008A838982E47328
:09016800EBF608EAF608E9F622BC
:09017100EBF0A3EAF0A3E9F0228F
:09017A00EBF208EAF208E9F222B6
:00000001FF
