:0300000002138E5A
:0C138E00787FE4F6D8FD7581080213D5C5
:1017310000010000000300000000000000000000A4
:08170F008200000082020000CC
:10119D00784AE4F20804F2087C007DFE7BFF7A17A2
:1011AD0079317E007F101203457BFE7A0079331270
:1011BD0012F87BFE7A0079421216847BFE7A007952
:1011CD000412141A7BFE7A00792112154F7815E45A
:1011DD00F20804F27811E4F2087432F2E47817F2AE
:1011ED0008F27813F2087432F2E47819F208F27BFF
:1011FD00FE7A0079111206F27A037BE8C0027C00B8
:10120D007D647845E2131313541FFF7E007839086F
:10121D00E2FA08E2F5828A83D00212054F7A037B47
:10122D00E8C0027C007D647845E25407FF7E0078BB
:10123D003908E2FA08E2F5828A83D00212054F805E
:01124D00B7E9
:1010E900781AE26401700218E26003021180784202
:1010F90008E2FA08E2F912054B7845EFF2E2FF75CA
:10110900F00A84FD7827E4F208EDF2EF75F00A841D
:10111900AFF008E4F208EFF27800E2FE08E2FF7CA3
:10112900007D0212039FED4C70167827E2FC08E25D
:10113900FD782108E2FA08E2F5828A837F018014AA
:101149007829E2FC08E2FD782108E2FA08E2F58252
:101159008A837F027E0012054F7801E22401F2188A
:10116900E23400F2D308E2941418E26480948040D7
:101179001CE4F208F28016781AE26402700218E29E
:10118900700B7803E22401F218E23400F2E47819D2
:03119900F208F267
:01119C002230
:0C000E007F017E8E7D02DDFEDEFADFF653
:01001A0022C3
:1016FB00AB07AA06EB1BAE0270011A4E6005120077
:04170B000E80F12239
:041717008246000006
:1012F800785CEBF208EAF208E9F27BFF7A1579B03C
:10130800C003C002C001785CE2FB08E2FA08E2F917
:101318001204A37BFF7A1579F8C003C002C00178D4
:101328005CE2FB08E2FA08E2F99000031204F27B9F
:10133800FF7A0D79DCC003C002C001785CE2FB08CB
:10134800E2FA08E2F99000061204F27BFF7A0979C2
:10135800FEC003C002C001785CE2FB08E2FA08E2C2
:10136800F99000091204F27BFF7A177920C003C0B4
:1013780002C001785CE2FB08E2FA08E2F990000C8E
:061388001204F20217201E
:1015B000EE7044EF14B40800503D9015C875F00368
:1015C000A4C58325F0C583730215E00215E3021557
:1015D000E60215E90215EC0215EF0215F20215F507
:1015E000C29022C29122C29222C29322C29422C2EB
:0815F0009522C29622C2972247
:1015F800EE7044EF14B40800503D90161075F003D7
:10160800A4C58325F0C5837302162802162B02167B
:101618002E02163102163402163702163A02163D09
:10162800D29022D29122D29222D29322D29422D242
:081638009522D29622D29722DE
:100DDC0015081508A808EAF208EBF215081508A87A
:100DEC0008ECF208EDF215081508A808EEF208EF69
:010DFC00F204
:100DFD00A808E2FE08E2FFEE704BEF14B4080050B5
:100E0D0044900E1C75F003A4C58325F0C5837302B1
:100E1D000E34020E38020E3C020E40020E44020E3B
:100E2D0048020E4C020E50C290801AC2918016C21A
:100E3D00928012C293800EC294800AC2958006C21F
:100E4D00968002C297A8080808E2FE08E2FF121673
:100E5D00FBA808E2FE08E2FFEE704BEF14B40800A9
:100E6D005044900E7D75F003A4C58325F0C58373A2
:100E7D00020E95020E99020E9D020EA1020EA50202
:100E8D000EA9020EAD020EB1D290801AD29180162B
:100E9D00D2928012D293800ED294800AD29580067F
:100EAD00D2968002D297A8080808E2FE08E2FF1247
:100EBD0016FB7847E22401F218E23400F2E2FC0856
:100ECD00E2FDA8080808E2FE08E2FF12038DE5081E
:100EDD002404F8E2FC08E2FDD39FEE6480F8EC6494
:0E0EED0080984003020DFDED4C7003020DFDD8
:070EFB00E5082406F50822BA
:1009FE0015081508A808ECF208EDF21508150815EB
:100A0E0008A808EBF208EAF208E9F2E50824ECF58A
:010A1E0008CF
:100A1F00F8E4F208F2A8080808F208F2E50824043E
:100A2F00F8E4F208F2E5082406F8E4F208F2E50823
:100A3F002408F8E4F208F2E508240AF8E4F208F2D0
:100A4F00E508240CF8E4F208F2E508240EF8E4F2C5
:100A5F0008F2E5082410F8E4F208F2E5082412F889
:100A6F00E4F208F2A808F208F2A808E2FE08E2FF92
:100A7F00C39408EE648094804003020B21EF25E0BD
:100A8F00FFEE33FEE5082414F8E2FB08E2FA08E271
:100A9F00F98F828E83120400FFE5F07066EF14B4B5
:100AAF000800505F900AC175F003A4C58325F0C5F7
:100ABF008373020AD9020ADF020AE5020AEB020A6D
:100ACF00F1020AF7020AFD020B03E508240480284D
:100ADF00E50824068022E5082408801CE508240A7E
:100AEF008016E508240C8010E508240E800AE5081E
:100AFF0024108004E5082412F808E22401F218E219
:100B0F003400F2A80808E22401F218E23400F202DD
:100B1F000A78E5082404F909E3700219E36002C2B8
:100B2F0090E5082406F909E3700219E36002C29107
:100B3F00E5082408F909E3700219E36002C292E59F
:100B4F0008240AF909E3700219E36002C293E50869
:100B5F00240CF909E3700219E36002C294E508243A
:100B6F000EF909E3700219E36002C295E50824103B
:100B7F00F909E3700219E36002C296E5082412F93D
:100B8F0009E3700219E36002C297E5082417F8E23F
:100B9F00FE08E2FF1216FBE5082404F909E37002D0
:100BAF0019E36002D290E5082406F909E3700219EF
:100BBF00E36002D291E5082408F909E3700219E312
:100BCF006002D292E508240AF909E3700219E36082
:100BDF0002D293E508240CF909E3700219E36002CD
:100BEF00D294E508240EF909E3700219E36002D2EA
:100BFF0095E5082410F909E3700219E36002D29613
:100C0F00E5082412F909E3700219E36002D297E5AF
:100C1F00082417F8E2FE08E2FF1216FBA8080808DE
:100C2F0008E22401F218E23400F2A8080808E2FCF6
:100C3F0008E2FDE5082417F8E2FE08E2FF12038D33
:100C4F00E5082419F8E2FC08E2FDD39FEE6480F872
:100C5F00EC6480984003020B21ED4C7003020B21D2
:070C6F00E508241BF5082233
:10172000D290D291D292D293D294D295D296D2978D
:011730002296
:10168400785CEBF208EAF208E9F27BFF7A10790061
:10169400C003C002C001785CE2FB08E2FA08E2F988
:1016A4001204A3785CE2FB08E2FA08E2F990000372
:0416B400E402036BDE
:10100000E4785FF208F275B0FF20B40E7F0AFE129A
:1010100016FB20B4057E007F022220B50F7F0A7EDA
:10102000001216FB20B5057E007F032220B60F7F3D
:101030000A7E001216FB20B6057E007F042220B730
:101040000F7F0A7E001216FB20B7057E007F052267
:1010500075B00FE5B0640F70030210E17F0A7E00E7
:101060001216FBE5B0640F607875B00FAFB0EF24D7
:10107000F9602924FC601B24FE600D147026785F43
:10108000E4F2087406F2801C785FE4F208740AF255
:101090008012785FE4F208740EF28008785FE4F260
:1010A000087412F275B0F0AFB0EF2490602824C03D
:1010B000601D24E0601224F07027785FE2FF08E2F0
:1010C00018CFF208EFF280197860E22401800C78E2
:1010D00060E2240280057860E22403F218E2340022
:0810E000F2785FE2FE08E2FF76
:0110E80022E5
:04171B008248000000
:10141A00785CEBF208EAF208E9F27BFF7A007903DA
:10142A00C003C002C001785CE2FB08E2FA08E2F9F4
:10143A001204A37BFF7A007906C003C002C00178B8
:10144A005CE2FB08E2FA08E2F99000031204F27B7C
:10145A00FF7A0F7902C003C002C001785CE2FB0880
:10146A00E2FA08E2F99000061204F2785CE2FB085C
:10147A00E2FA08E2F99000091204730000000A2255
:03000300C2A32273
:03000600D2A32260
:100F020015081508A808ECF208EDF215081508A84E
:0C0F120008EEF208EFF2E50824FCF508F8
:100F1E00F8E4F208F2A8080808F208F27815E2FEE2
:100F2E0008E2FF64014E70187818E2700218E27041
:100F3E000F7811E2FD08E2A808CDF208EDF280224A
:100F4E00EF4E700F7818E26402700218E2700478A7
:100F5E00138004780D0808E2FF08E2A808CFF20813
:100F6E00EFF2E5082404F8E2FC08E2FDE5082406A9
:100F7E00F8E2FE08E2FF12038DA8080808EEF20858
:100F8E00EFF27848E2FC08E2FDA808E2FE08E2FF74
:100F9E0012038DA8080808E2FC08E2FDC39FEC9E30
:100FAE004004C2A38017C3ED9FEC9E5010E50824A9
:100FBE0004F9C309E39F19E39E4002D2A37849E2E4
:100FCE002401F218E23400F2E2FC08E2FDA808E285
:100FDE00FE08E2FF12038DE5082404F9C309E39F1E
:0B0FEE0019E39E5006E47848F208F278
:070FF900E5082408F50822B9
:1016E4003F065B4F666D7D077F6F777C395E79714E
:0716F400FFFEFDFBF7EFDF35
:0A154F00785CEBF208EAF208E9F21A
:10155900E4FF785CE2FB08E2FA08E2F9900006751C
:10156900F002EF120497E4F5F01204380FEFB40615
:10157900E17BFF7A1679B8C003C002C001785CE24A
:10158900FB08E2FA08E2F91204A37BFF7A12794E0A
:10159900C003C002C001785CE2FB08E2FA08E2F984
:0615A9009000031204F2A1
:0115AF002219
:1016B800D2A674E42DF58274163CF583E493F58084
:1016C800C2A69016F4E493F580D2A774F42FF5829D
:0C16D80074163EF583E493F580C2A7224F
:10124E00150815081508A808EBF208EAF208E9F2E5
:10125E0015081508A808ECF208EDF215081508A8EF
:0A126E0008EEF208EFF2150815086B
:10127800A808E4F20804F2A8080808E2FF08E2A8AF
:1012880008CFF208EFF2E5082404F8E2FC08E2FDD2
:10129800A808E2FE08E2FFD39DEC6480F8EE6480C3
:1012A800985046C006C007EF24FFFDEE34FFFCED62
:1012B80025E0FDEC33FCE5082406F8E2FB08E2FA39
:1012C80008E2F98D828C83120400FDACF0D007D0BF
:1012D800061216B87F017E001216FBA80808E22441
:0912E80001F218E23400F2809DCD
:0712F100E5082409F50822BD
:1006F200785CEBF208EAF208E9F27BFF7A1079E91A
:10070200C003C002C001785CE2FB08E2FA08E2F929
:1007120090000A1204F27BFF7A0C7976C003C002C1
:10072200C001785CE2FB08E2FA08E2F990000D12DF
:1007320004F2785CE2FB08E2FA08E2F990000412A3
:100742000400640145F060030207E690000612040B
:100752000045F060030207E67589011203D5FDAC7E
:10076200F07E037FE812039FAB07AA06EA3395E007
:10077200F9F87F007E107D0E7C00121640C3E49FC4
:10078200FFE49EFE74019DFDE49CFCE4FB7A01F90A
:10079200F81216408F8C785CE2FB08E2FA08E2F964
:1007A2001203D5FDACF07E037FE812039FAB07AACC
:1007B20006EA3395E0F9F87F007E107D0E7C001288
:1007C2001640C3E49FFFE49EFE74019DFDE49CFC81
:1007D200E4FB7A01F9F8121640AF038F8AD2AFD246
:1007E200A9D28C22785CE2FB08E2FA08E2F99000D6
:1007F2000412040045F0600302089E9000061204F1
:1008020000640245F0600302089E758910900002A0
:10081200120400FDACF07E037FE812039FAB07AA2F
:1008220006EA3395E0F9F87F007E107D0E7C001217
:100832001640C3E49FFFE49EFE74019DFDE49CFC10
:10084200E4FB7A01F9F81216408F8D785CE2FB081E
:10085200E2FA08E2F9900002120400FDACF07E0315
:100862007FE812039FAB07AA06EA3395E0F9F87F07
:10087200007E107D0E7C00121640C3E49FFFE49EB2
:10088200FE74019DFDE49CFCE4FB7A01F9F812166A
:1008920040AF038F8BD2AFD2ABD28E22785CE2FB19
:1008A20008E2FA08E2F9900004120400640145F03B
:1008B20060030209FD900006120400640245F06024
:1008C200030209FDC2AF758911900002120400FDF6
:1008D200ACF07E037FE812039FAB07AA06EA3395CA
:1008E200E0F9F87F007E107D0E7C00121640C3E412
:1008F2009FFFE49EFE74019DFDE49CFCE4FB7A01F3
:10090200F9F81216408F8D785CE2FB08E2FA08E2F1
:10091200F9900002120400FDACF07E037FE812039E
:100922009FAB07AA06EA3395E0F9F87F007E107DB7
:100932000E7C00121640C3E49FFFE49EFE74019DEC
:10094200FDE49CFCE4FB7A01F9F8121640AF038F38
:100952008BD2ABD28E785CE2FB08E2FA08E2F912A3
:1009620003D5FDACF0EC1201BBA804A905AA06ABA5
:1009720007E4FFFE7D7A7C44120119A804A905AAA6
:1009820006AB07E4FFFE7D617C49120119A804A9A8
:1009920005AA06AB07E4FFFE7D807C47120021E436
:1009A200FBFA798078431201191201F48F8C785C7A
:1009B200E2FB08E2FA08E2F91203D5FDACF07E038D
:1009C2007FE812039FAB07AA06EA3395E0F9F87FA6
:1009D200007E107D0E7C00121640C3E49FFFE49E51
:1009E200FE74019DFDE49CFCE4FB7A01F9F8121609
:0C09F20040AF038F8AD2A9D28CD2AF2272
:100C7600785FEBF208EAF208E9F2785FE2FB08E255
:100C8600FA08E2F9900004120400640145F06003DA
:100C9600020D2B900008120400640145F060030267
:100CA6000D2B1203D5FDACF07E037FE812039FAB3C
:100CB60007AA06EA3395E0F9F87F007E107D0E7CE0
:100CC60000121640C3E49FFFE49EFE74019DFDE4FE
:100CD6009CFCE4FB7A01F9F81216408F8C785FE2EF
:100CE600FB08E2FA08E2F91203D5FDACF07E037FB9
:100CF600E812039FAB07AA06EA3395E0F9F87F00EE
:100D06007E107D0E7C00121640C3E49FFFE49EFE1B
:100D160074019DFDE49CFCE4FB7A01F9F81216408F
:100D2600AF038F8A22785FE2FB08E2FA08E2F990C5
:100D36000006120400640245F06003020DDB900019
:100D460008120400640245F06003020DDB90000205
:100D5600120400FDACF07E037FE812039FAB07AAE6
:100D660006EA3395E0F9F87F007E107D0E7C0012CE
:100D76001640C3E49FFFE49EFE74019DFDE49CFCC7
:100D8600E4FB7A01F9F81216408F8D785FE2FB08D2
:100D9600E2FA08E2F9900002120400FDACF07E03CC
:100DA6007FE812039FAB07AA06EA3395E0F9F87FBE
:100DB600007E107D0E7C00121640C3E49FFFE49E69
:100DC600FE74019DFDE49CFCE4FB7A01F9F8121621
:060DD60040AF038F8B22E9
:03000B000214EDEF
:1014ED00C0E0C0F0C083C082C0D075D000C000C0C5
:1014FD0001C002C003C004C005C006C0077819E4CE
:10150D00F20804F27BFE7A007911C002781E08E21F
:10151D00FA08E2F5828A83D00212054F781B08E2A1
:10152D00FA08E2F912054BD007D006D005D004D049
:10153D0003D002D001D000D0D0D082D083D0F0D053
:02154D00E0328A
:03001B0002148A42
:10148A00C0E0C0F0C083C082C0D075D000C000C028
:10149A0001C002C003C004C005C006C0077819E431
:1014AA00F2087402F27BFE7A007911C002781E08F3
:1014BA00E2FA08E2F5828A83D00212054F781B0805
:1014CA00E2FA08E2F912054BD007D006D005D0049B
:1014DA00D003D002D001D000D0D0D082D083D0F0B7
:0314EA00D0E0321D
:10001E00020260E86480F8E933E83360110460F0AE
:10002E00ED33EC337009E8FCE9FDEAFEEBFF220448
:10003E0060DED3EB9FEA9EE99DE8C2E78CF0C2F743
:10004E0095F0400CE8CCF8E9CDF9EACEFAEBCFFB0F
:10005E0012022B85D0F05804700320D5B3E804703B
:10006E00075002B2D502026A92D5EC0460F7E4CCD6
:10007E00C0E0C398F8603B94186008400DD0E0FBD8
:10008E00020242E4FBFAC9FC8028E830E406E4C927
:10009E00FBE4CAFCE830E305E4C9CACBFCE854072C
:1000AE006010F8C3E913F9EA13FAEB13FBEC13FC37
:1000BE00D8F130F52FC3E49CFCEF9BFFEE9AFEEDDA
:1000CE0099FDD0E0FBEF4E4D4C701222DB03020285
:1000DE0067EC2CFCEF33FFEE33FEED33FDED30E736
:1000EE00EB020242EF2BFFEE3AFEED39FDD0E0FBC4
:1000FE0050130BBB000302026AED13FDEE13FEEF6D
:08010E0013FFEC13FC02024296
:1001160002026AEC5D046005E8590470030202609D
:1001260012022B580460F6EC4860F2EC7004FDFEF7
:10013600FF22C860DB2481C85009C39860025006BC
:100146000202679850CAF582E9294B4A7005AB82CC
:1001560002025675F0007C1A7880C3EF9BEE9AED8A
:1001660099400DC3EF9BFFEE9AFEED99FDE842F034
:10017600DC23ACF0D0E0FFD0E0FED0E0FDAB822087
:10018600E7101BEB60BAEC2CFCEF33FFEE33FEED11
:1001960033FD020242E803F830E705C0F075F000CF
:1001A600EF2FFFEE33FEED33FD40B830E7C280AAF5
:1001B60075F020800E75F010800575F0087D007EC4
:1001C600007F003392D530D503120465EC3340101E
:1001D600EF33FFEE33FEED33FDEC33FCD5F0ED22CD
:0E01E600E5F0247EA2D513CC92E7CDCEFF2209
:1001F400EDD2E7CD33EC3392D524814006E4FFFE03
:10020400FDFC22FCE4CFCECDCC24E0501174FF8061
:10021400EDC3CC13CCCD13CDCE13CECF13CF0470FE
:07022400F030D5DE02046595
:10022B00E9D2E7C933E833F892D5EDD2E7CD33EC19
:07023B0033FC5002B2D52292
:10024200EC30E7100FBF000C0EBE00080DBD00041D
:100252000BEB6014A2D5EB13FCED92E7FD2274FFC9
:10026200FCFDFEFF22E480F8A2D574FF13FC7D8022
:03027200E480EF36
:10139A0002119DE493A3F8E493A34003F68001F2BB
:1013AA0008DFF48029E493A3F85407240CC8C33354
:1013BA00C4540F4420C8834004F456800146F6DF23
:1013CA00E4800B010204081020408090170FE47E8D
:1013DA00019360BCA3FF543F30E509541FFEE49318
:1013EA00A360010ECF54C025E060A840B8E493A3DF
:1013FA00FAE493A3F8E493A3C8C582C8CAC583CA0A
:10140A00F0A3C8C582C8CAC583CADFE9DEE780BEC1
:01171F0000C9
:10027500E709F608DFFA8046E709F208DFFA803E6B
:1002850088828C83E709F0A3DFFA8032E309F60858
:10029500DFFA8078E309F208DFFA807088828C83C0
:1002A500E309F0A3DFFA806489828A83E0A3F60874
:1002B500DFFA805889828A83E0A3F208DFFA804C4E
:1002C50080D280FA80C680D4806980F28033801025
:1002D50080A680EA809A80A880DA80E280CA80338E
:1002E50089828A83ECFAE493A3C8C582C8CCC58306
:1002F500CCF0A3C8C582C8CCC583CCDFE9DEE780D6
:100305000D89828A83E493A3F608DFF9ECFAA9F054
:10031500EDFB2289828A83ECFAE0A3C8C582C8CCAA
:10032500C583CCF0A3C8C582C8CCC583CCDFEADEC3
:10033500E880DB89828A83E493A3F208DFF980CC25
:1003450088F0EF60010E4E60C388F0ED2402B4041E
:100355000050B9F582EB2402B4040050AF232345C5
:0603650082239002C57323
:10036B00F8BB010DE58229F582E5833AF583E8F0C8
:10037B00225006E92582C8F622BBFE05E92582C874
:02038B00F2225C
:10038D00EF8DF0A4A8F0CF8CF0A428CE8DF0A42E84
:02039D00FE223E
:10039F00C2D5EC30E709B2D5E4C39DFDE49CFCEE79
:1003AF0030E715B2D5E4C39FFFE49EFE120551C39B
:1003BF00E49DFDE49CFC800312055130D507C3E496
:0603CF009FFFE49EFE22E8
:1003D500BB010A89828A83E0F5F0A3E022500687F3
:1003E500F009E71922BBFE07E3F5F009E3192289B5
:0B03F500828A83E493F5F074019322E8
:10040000BB0110E58229F582E5833AF583E0F5F03A
:10041000A3E0225009E92582F886F008E622BBFE17
:100420000AE92582F8E2F5F008E222E5832AF5835D
:08043000E993F5F0A3E9932222
:10043800F8BB0111E58229F582E5833AF583E8F0F6
:10044800E5F0A3F0225009E92582C8F608A6F022B3
:0D045800BBFE09E92582C8F2E5F008F2229A
:10164000C2D5E830E70FB2D5E4C39BFBE49AFAE4D5
:1016500099F9E498F8EC30E717B2D512167612052E
:10166000E2E4C39BFBE49AFAE499F9E498F8800376
:101670001205E230D50DE4C39FFFE49EFEE49DFD1C
:04168000E49CFC22C8
:0E046500C3E49FFFE49EFEE49DFDE49CFC22A8
:10047300BB010DE58229F582E5833AF58302068DFA
:100483005007E92582F8020674BBFE07E92582F8C6
:040493000206BE227D
:0C049700A42582F582E5F03583F5832270
:1004A300BB011A89828A83D0F0D0E0F8D0E0F9D07A
:1004B300E0FAD0E0FBE8C0E0C0F00206E05016E945
:1004C300F8D083D082D0E0F9D0E0FAD0E0FBC0824C
:1004D300C0830206D7BBFE16E9F8D083D082D0E0F2
:0F04E300F9D0E0FAD0E0FBC082C0830206E92224
:1004F200BB0120E58229F582E5833AF583D0F0D06D
:10050200E0F8D0E0F9D0E0FAD0E0FBE8C0E0C0F0DB
:100512000206E05018E92582F8D083D082D0E0F9B3
:10052200D0E0FAD0E0FBC082C0830206D7BBFE183F
:10053200E92582F8D083D082D0E0F9D0E0FAD0E089
:09054200FBC082C0830206E9221D
:06054B008A838982E4733B
:10055100BC000BBE0029EF8DF084FFADF022E4CC8E
:10056100F875F008EF2FFFEE33FEEC33FCEE9DEC57
:10057100984005FCEE9DFE0FD5F0E9E4CEFD22ED9D
:10058100F8F5F0EE8420D21CFEADF075F008EF2FE7
:10059100FFED33FD4007985006D5F0F222C398FDD8
:0505A1000FD5F0EA2275
:1005A60075F008758200EF2FFFEE33FECD33CDCC0C
:1005B60033CCC58233C5829BED9AEC99E58298408F
:1005C6000CF582EE9BFEED9AFDEC99FC0FD5F0D66C
:1005D600E4CEFBE4CDFAE4CCF9A88222B800C1B996
:1005E6000059BA002DEC8BF084CFCECDFCE5F0CBD4
:1005F600F97818EF2FFFEE33FEED33FDEC33FCEB0D
:1006060033FB10D703994004EB99FB0FD8E5E4F9C7
:10061600FA227818EF2FFFEE33FEED33FDEC33FCB4
:10062600C933C910D7059BE99A4007EC9BFCE99AA8
:10063600F90FD8E0E4C9FAE4CCFB2275F010EF2FED
:10064600FFEE33FEED33FDCC33CCC833C810D707ED
:100656009BEC9AE899400AED9BFDEC9AFCE899F828
:0E0666000FD5F0DAE4CDFBE4CCFAE4C8F922BB
:10067400D083D082E493F608740193F6087402934D
:09068400F608740393F674047384
:10068D00A8828583F0D083D0821206A41206A4120C
:10069D0006A41206A4E473E493A3C583C5F0C58331
:1006AD00C8C582C8F0A3C583C5F0C583C8C582C8B7
:0106BD00221A
:1006BE00D083D082E493F208740193F2087402930B
:0906CE00F208740393F274047342
:0906D700EBF608EAF608E9F62248
:0906E000EBF0A3EAF0A3E9F0221B
:0906E900EBF208EAF208E9F22242
:00000001FF
