:03000000021009E2
:0C100900787FE4F6D8FD75816602105077
:1014C900000100000003000000000000000000000F
:10111300784E7C007D007BFF7A1479C97E007F10B6
:101123001203457B007A00793B1210957B007A000D
:10113300794A1214657B007A0079081211897B00C1
:101143007A00792912128775190175150075160130
:10115300E4F51AF517751803F51BFB7A00791512D8
:1011630006E97C007D647E007F018543828542839E
:1011730012059B7C007D647E007F0285438285424D
:061183008312059B80DCD5
:1013F900E51BB4011A051DE51D7002051CC394887F
:10140900E51C648094934024E4F51CF51D801DE5DA
:101419001BB40218051FE51F7002051EC39488E559
:101429001E648094934005E4F51EF51FE4F51B2224
:0C000E007F017E8E7D02DDFEDEFADFF653
:01001A0022C3
:1014A400AB07AA06EB1BAE0270011A4E60051200D0
:0414B4000E80F12293
:101095008B5E8A5F89607BFF7A137925C003C00266
:1010A500C001AB5EAA5FA9601204EF7BFF7A1379DA
:1010B5006DC003C002C001AB5EAA5FA960900003CA
:1010C50012053E7BFF7A0C79A1C003C002C001ABBB
:1010D5005EAA5FA96090000612053E7BFF7A09793A
:1010E500B2C003C002C001AB5EAA5FA9609000094F
:1010F50012053E7BFF7A1479B8C003C002C001AB6C
:0E1105005EAA5FA96090000C12053E0214B8AD
:10132500EE7044EF14B40800503D90133D75F00382
:10133500A4C58325F0C58373021355021358021300
:101345005B02135E02136102136402136702136AE0
:10135500C29022C29122C29222C29322C29422C278
:081365009522C29622C29722D4
:10136D00EE7044EF14B40800503D90138575F003F2
:10137D00A4C58325F0C5837302139D0213A0021328
:10138D00A30213A60213A90213AC0213AF0213B2E8
:10139D00D29022D29122D29222D29322D29422D2D0
:0813AD009522D29622D297226C
:100CA10015661566A866A60408A60515661566A844
:0A0CB10066A60608A607156615667C
:100CBB00A866E4F608F6E5662404F8E6FE08E6FF07
:100CCB0085258285248312059BEF4E6010A866E66E
:100CDB00FE08E6F4FFEEF4A866F608A607A9660977
:100CEB00E71947605FA8660808E6FE08E6FFEE60B6
:100CFB0003020DA6EF14B408004003020DA6900DDD
:100D0B001775F003A4C58325F0C58373020D2F025D
:100D1B000D33020D37020D3B020D3F020D43020D49
:100D2B0047020D4BC2908073C291806FC292806B51
:100D3B00C2938067C2948063C295805FC296805BCA
:100D4B00C2978057A8660808E6FE08E6FFEE704BD0
:100D5B00EF14B408005044900D7075F003A4C583D4
:100D6B0025F0C58373020D88020D8C020D90020DC8
:100D7B0094020D98020D9C020DA0020DA4D290803E
:100D8B001AD2918016D2928012D293800ED2948076
:0B0D9B000AD2958006D2968002D29703
:070DA600E5662406F5662254
:1009B20015661566A866A60408A6051566156615C9
:1009C20066A866A60308A60208A601E56624F6F54F
:0109D20066BE
:1009D300F8E4F6A86608F6A8660808F6E5662403B0
:1009E300F8E4F6E5662404F8E4F6E5662405F8E49D
:1009F300F6E5662406F8E4F6E5662407F8E4F6E58A
:100A0300662408F8E4F6E5662409F8E4F6E56624C6
:100A13000DF8E6FE08E6FF85258285248312059BF3
:100A2300EF4E6008E5662409F8E6F4F6A866E4F6F6
:100A3300A866E6FFC394084003020ACCE566240ACD
:100A4300F8860308E6FA08E6F975F002EFA4F582E2
:100A530085F08312044CFFE5F07068EF14B40800CE
:100A63005061900A7375F003A4C58325F0C58373A1
:100A7300020A8B020A91020A98020AA0020AA80239
:100A83000AB0020AB8020AC0A86608068035A8663A
:100A9300080806802EE5662403F8068026E566240A
:100AA30004F806801EE5662405F8068016E566242C
:100AB30006F806800EE5662407F8068006E5662438
:100AC30008F806A86606020A33E5662409F8E66014
:100AD3004FA86608E66002C290A8660808E66002AE
:100AE300C291E5662403F8E66002C292E566240437
:100AF300F8E66002C293E5662405F8E66002C29454
:100B0300E5662406F8E66002C295E5662407F8E682
:100B13006002C296E5662408F8E66051C297804DEC
:100B2300A86608E66002D290A8660808E66002D2CA
:100B330091E5662403F8E66002D292E5662404F8A0
:100B4300E66002D293E5662405F8E66002D294E5F6
:100B5300662406F8E66002D295E5662407F8E660A7
:0D0B630002D296E5662408F8E66002D297FB
:070B7000E566240FF5662283
:1014B800D290D291D292D293D294D295D296D297F8
:0114C8002201
:101465008B5E8A5F89607BFF7A0E7990C003C0022C
:10147500C001AB5EAA5FA9601204EFAB5EAA5FA9CB
:0814850060900003E4020398EB
:100E9000E4F561F56275B0FF20B40E7F0AFE12140E
:100EA000A420B4057E007F022220B50F7F0A7E00B9
:100EB0001214A420B5057E007F032220B60F7F0AFE
:100EC0007E001214A420B6057E007F042220B70FF6
:100ED0007F0A7E001214A420B7057E007F052275CC
:100EE000B00FE5B0640F60777F0A7E001214A4E5AE
:100EF000B0640F606A75B00FAFB0EF24F9602324BF
:100F0000FC601724FE600B14701E7561007562068C
:100F1000801675610075620A800E75610075620E3B
:100F2000800675610075621275B0F0AFB0EF249065
:100F3000602224C0601A24E0600C24F070218561D6
:100F40006185626280190562E56270130561800F38
:100F50007402800274032562F562E43561F561AEC6
:030F600061AF621C
:010F6300226B
:040003000264000093
:101189008B5E8A5F89607BFF7A007908C003C002A1
:10119900C001AB5EAA5FA9601204EF7BFF7A1479E4
:1011A900D9C003C002C001AB5EAA5FA96090000369
:1011B90012053E7BFF7A0D79ADC003C002C001ABB9
:1011C9005EAA5FA96090000612053EAB5EAA5FA900
:0C11D900609000091204BF0000000A2210
:03000800C2A3226E
:0314D900D2A32279
:100DAD0015661566A866A60408A60515661566A837
:0C0DBD0066A60608A607E56624FCF5669D
:100DC900F8E4F608F6A8660808F608F6E519B40185
:100DD9000DE51A7009A866A61508A616801BE5195F
:100DE900700EE51AB40109A866A61708A6188009A5
:100DF900AF14A866A61308A607E5662404F8E6FC5E
:100E090008E6FDE5662406F8E6FE08E6FF1203BAE1
:100E1900A8660808A60608A607AC64AD65A866E634
:100E2900FE08E6FF1203BAA8660808E6FC08E6FD14
:100E3900D3EF9DEE9C5004C2A3801AC3ED9FEC9E94
:100E49005013E5662404F8E6FC08E6FDD3EF9DEEB1
:100E59009C5002D2A30565E56570020564AC64FD8A
:100E6900A866E6FE08E6FF1203BAE5662404F8E67A
:100E7900FC08E6FDD3EF9DEE9C4005E4F564F565BD
:070E8900E5662408F566226E
:10148D003F065B4F666D7D077F6F777C395E7971A7
:07149D00FFFEFDFBF7EFDF8E
:061287008B5E8A5F8960A6
:10128D00E4FFAB5EAA5FA96090000675F002EF1255
:10129D0004E3E4F5F01204840FBF06E67BFF7A1435
:1012AD007939C003C002C001AB5EAA5FA960120408
:1012BD00EF7BFF7A0F7964C003C002C001AB5EAA59
:0912CD005FA96090000312053EC8
:0112D60022F5
:10143900D2A6748D2DF58274143CF583E493F5805E
:10144900C2A690149DE493F580D2A7749D2FF582CE
:0C14590074143EF583E493F580C2A722D2
:100F6400156615661566A866A60308A60208A601F6
:100F740015661566A866A60408A60515661566A86E
:0A0F840066A60608A60715661566A6
:100F8E00A8667600087601A8660808E6FE08E6FF61
:100F9E00A866A60608A607E5662404F9A866E6FE76
:100FAE0008E6FFD3099719E76480F8EE648098503D
:100FBE0043C006C007EF24FFFDEE34FFFCED25E035
:100FCE00FDEC33FCE5662406F8860308E6FA08E62F
:100FDE00F98D828C8312044CFDACF0D007D0061232
:100FEE0014397F017E001214A4A8660806E6187054
:040FFE00A60680A320
:07100200E5662409F56622F2
:1006E9008B5E8A5F89607BFF7A1379F9C003C00248
:1006F900C001AB5EAA5FA96090000B12053E7BFFAB
:100709007A0B7977C003C002C001AB5EAA5FA9600A
:1007190090001112053EAB5EAA5FA960900009E442
:10072900F5F0120484900007E4F5F01204849000B7
:100739000412036B640160030207D3AB5EAA5FA9CD
:100749006090000512036B60030207D375890112DB
:100759000421FDACF07E037FE81203CCAB07AA06A7
:10076900E4F9F8FF7E107D0EFC1213B5C3E49FFF78
:10077900E49EFE74019DFDE49CFCE4FB7A01F9F81A
:100789001213B58F8CAB5EAA5FA960120421FDAC70
:10079900F07E037FE81203CCAB07AA06E4F9F8FF61
:1007A9007E107D0EFC1213B5C3E49FFFE49EFE7418
:1007B900019DFDE49CFCE4FB7A01F9F81213B5AF45
:1007C900038F8AD2AFD2A9D28C22AB5EAA5FA9606D
:1007D90090000412036B6003020875900005120370
:1007E9006B64016003020875758910900002120498
:1007F9004CFDACF07E037FE81203CCAB07AA06E4FC
:10080900F9F8FF7E107D0EFC1213B5C3E49FFFE4D7
:100819009EFE74019DFDE49CFCE4FB7A01F9F8124B
:1008290013B58F8DAB5EAA5FA96090000212044CCC
:10083900FDACF07E037FE81203CCAB07AA06E4F90E
:10084900F8FF7E107D0EFC1213B5C3E49FFFE49EF2
:10085900FE74019DFDE49CFCE4FB7A01F9F8121396
:10086900B5AF038F8BD2AFD2ABD28E22AB5EAA5F6C
:10087900A96090000412036B640160030209B1903E
:10088900000512036B640160030209B1C2AF7589E7
:100899001190000212044CFDACF07E037FE81203B4
:1008A900CCAB07AA06E4F9F8FF7E107D0EFC121303
:1008B900B5C3E49FFFE49EFE74019DFDE49CFCE446
:1008C900FB7A01F9F81213B58F8DAB5EAA5FA960A7
:1008D90090000212044CFDACF07E037FE81203CCB9
:1008E900AB07AA06E4F9F8FF7E107D0EFC1213B5DA
:1008F900C3E49FFFE49EFE74019DFDE49CFCE4FBC0
:100909007A01F9F81213B5AF038F8BD2ABD28EAB44
:100919005EAA5FA960120421FDACF0E41201BBA834
:1009290004A905AA06AB07E4FFFE7D7A7C441201FF
:1009390019A804A905AA06AB07E4FFFE7D617C4955
:10094900120119A804A905AA06AB07E4FFFE7D80D8
:100959007C47120021E4FBFA7980784312011912CD
:1009690001F48F8CAB5EAA5FA960120421FDACF083
:100979007E037FE81203CCAB07AA06E4F9F8FF7EF1
:10098900107D0EFC1213B5C3E49FFFE49EFE7401B3
:100999009DFDE49CFCE4FB7A01F9F81213B5AF0361
:0909A9008F8AD2A9D28CD2AF22B0
:100B77008B618A62896390000412036B64016003CE
:100B8700020C0990000612036B64017075120421B0
:100B9700FDACF07E037FE81203CCAB07AA06E4F9AD
:100BA700F8FF7E107D0EFC1213B5C3E49FFFE49E91
:100BB700FE74019DFDE49CFCE4FB7A01F9F8121335
:100BC700B58F8CAB61AA62A963120421FDACF07EDC
:100BD700037FE81203CCAB07AA06E4F9F8FF7E10FF
:100BE7007D0EFC1213B5C3E49FFFE49EFE74019DC6
:100BF700FDE49CFCE4FB7A01F9F81213B5AF038F0F
:100C07008A22AB61AA62A96390000512036B640193
:100C17006003020CA090000612036B6402707A90C6
:100C2700000212044CFDACF07E037FE81203CCAB4C
:100C370007AA06E4F9F8FF7E107D0EFC1213B5C370
:100C4700E49FFFE49EFE74019DFDE49CFCE4FB7AB7
:100C570001F9F81213B58F8DAB61AA62A9639000F1
:100C67000212044CFDACF07E037FE81203CCAB0705
:100C7700AA06E4F9F8FF7E107D0EFC1213B5C3E453
:100C87009FFFE49EFE74019DFDE49CFCE4FB7A015A
:0A0C9700F9F81213B5AF038F8B229A
:1012D700AB07AA06C2AFE5196401701EE51A701ABA
:1012E700AC15AD161203CCAC1CAD1DCFCDCFCECCFB
:1012F700CE1203CCED4C7022801CAC17AD18AE0299
:10130700AF031203CCAC1EAD1FCFCDCFCECCCE12C8
:0E13170003CCED4C7004FE7F0122E4FEFF22A9
:03000B000211E5FA
:1011E500C0E0C0F0C083C082C0D075D000C000C0D0
:1011F50001C002C003C004C005C006C007751B01BD
:101205007B007A00791585288285278312059BAA9C
:1012150021A922120597D007D006D005D004D00306
:10122500D002D001D000D0D0D082D083D0F0D0E091
:011235003286
:03001B0002123698
:10123600C0E0C0F0C083C082C0D075D000C000C07E
:1012460001C002C003C004C005C006C007751B026A
:101256007B007A00791585288285278312059BAA4B
:1012660021A922120597D007D006D005D004D003B5
:10127600D002D001D000D0D0D082D083D0F0D0E040
:011286003235
:10001E00020260E86480F8E933E83360110460F0AE
:10002E00ED33EC337009E8FCE9FDEAFEEBFF220448
:10003E0060DED3EB9FEA9EE99DE8C2E78CF0C2F743
:10004E0095F0400CE8CCF8E9CDF9EACEFAEBCFFB0F
:10005E0012022B85D0F05804700320D5B3E804703B
:10006E00075002B2D502026A92D5EC0460F7E4CCD6
:10007E00C0E0C398F8603B94186008400DD0E0FBD8
:10008E00020242E4FBFAC9FC8028E830E406E4C927
:10009E00FBE4CAFCE830E305E4C9CACBFCE854072C
:1000AE006010F8C3E913F9EA13FAEB13FBEC13FC37
:1000BE00D8F130F52FC3E49CFCEF9BFFEE9AFEEDDA
:1000CE0099FDD0E0FBEF4E4D4C701222DB03020285
:1000DE0067EC2CFCEF33FFEE33FEED33FDED30E736
:1000EE00EB020242EF2BFFEE3AFEED39FDD0E0FBC4
:1000FE0050130BBB000302026AED13FDEE13FEEF6D
:08010E0013FFEC13FC02024296
:1001160002026AEC5D046005E8590470030202609D
:1001260012022B580460F6EC4860F2EC7004FDFEF7
:10013600FF22C860DB2481C85009C39860025006BC
:100146000202679850CAF582E9294B4A7005AB82CC
:1001560002025675F0007C1A7880C3EF9BEE9AED8A
:1001660099400DC3EF9BFFEE9AFEED99FDE842F034
:10017600DC23ACF0D0E0FFD0E0FED0E0FDAB822087
:10018600E7101BEB60BAEC2CFCEF33FFEE33FEED11
:1001960033FD020242E803F830E705C0F075F000CF
:1001A600EF2FFFEE33FEED33FD40B830E7C280AAF5
:1001B60075F020800E75F010800575F0087D007EC4
:1001C600007F003392D530D5031204B1EC334010D2
:1001D600EF33FFEE33FEED33FDEC33FCD5F0ED22CD
:0E01E600E5F0247EA2D513CC92E7CDCEFF2209
:1001F400EDD2E7CD33EC3392D524814006E4FFFE03
:10020400FDFC22FCE4CFCECDCC24E0501174FF8061
:10021400EDC3CC13CCCD13CDCE13CECF13CF0470FE
:07022400F030D5DE0204B149
:10022B00E9D2E7C933E833F892D5EDD2E7CD33EC19
:07023B0033FC5002B2D52292
:10024200EC30E7100FBF000C0EBE00080DBD00041D
:100252000BEB6014A2D5EB13FCED92E7FD2274FFC9
:10026200FCFDFEFF22E480F8A2D574FF13FC7D8022
:03027200E480EF36
:10101500021113E493A3F8E493A34003F68001F2CD
:1010250008DFF48029E493A3F85407240CC8C333DC
:10103500C4540F4420C8834004F456800146F6DFAB
:10104500E4800B0102040810204080900003E47E38
:10105500019360BCA3FF543F30E509541FFEE493A0
:10106500A360010ECF54C025E060A840B8E493A367
:10107500FAE493A3F8E493A3C8C582C8CAC583CA92
:10108500F0A3C8C582C8CAC583CADFE9DEE780BE4A
:0100070000F8
:10027500E709F608DFFA8046E709F208DFFA803E6B
:1002850088828C83E709F0A3DFFA8032E309F60858
:10029500DFFA8078E309F208DFFA807088828C83C0
:1002A500E309F0A3DFFA806489828A83E0A3F60874
:1002B500DFFA805889828A83E0A3F208DFFA804C4E
:1002C50080D280FA80C680D4806980F28033801025
:1002D50080A680EA809A80A880DA80E280CA80338E
:1002E50089828A83ECFAE493A3C8C582C8CCC58306
:1002F500CCF0A3C8C582C8CCC583CCDFE9DEE780D6
:100305000D89828A83E493A3F608DFF9ECFAA9F054
:10031500EDFB2289828A83ECFAE0A3C8C582C8CCAA
:10032500C583CCF0A3C8C582C8CCC583CCDFEADEC3
:10033500E880DB89828A83E493A3F208DFF980CC25
:1003450088F0EF60010E4E60C388F0ED2402B4041E
:100355000050B9F582EB2402B4040050AF232345C5
:0603650082239002C57323
:10036B00BB010CE58229F582E5833AF583E0225047
:10037B0006E92582F8E622BBFE06E92582F8E22291
:0D038B00E58229F582E5833AF583E49322AB
:10039800F8BB010DE58229F582E5833AF583E8F09B
:1003A800225006E92582C8F622BBFE05E92582C847
:0203B800F2222F
:1003BA00EF8DF0A4A8F0CF8CF0A428CE8DF0A42E57
:0203CA00FE2211
:1003CC00BC000BBE0029EF8DF084FFADF022E4CC15
:1003DC00F875F008EF2FFFEE33FEEC33FCEE9DECDE
:1003EC00984005FCEE9DFE0FD5F0E9E4CEFD22ED24
:1003FC00F8F5F0EE8420D21CFEADF075F008EF2F6E
:10040C00FFED33FD4007985006D5F0F222C398FD5E
:05041C000FD5F0EA22FB
:10042100BB010A89828A83E0F5F0A3E022500687A6
:10043100F009E71922BBFE07E3F5F009E319228968
:0B044100828A83E493F5F0740193229B
:10044C00BB0110E58229F582E5833AF583E0F5F0EE
:10045C00A3E0225009E92582F886F008E622BBFECB
:10046C000AE92582F8E2F5F008E222E5832AF58311
:08047C00E993F5F0A3E99322D6
:10048400F8BB0111E58229F582E5833AF583E8F0AA
:10049400E5F0A3F0225009E92582C8F608A6F02267
:0D04A400BBFE09E92582C8F2E5F008F2224E
:1013B500C2D5E830E70FB2D5E4C39BFBE49AFAE463
:1013C50099F9E498F8EC30E717B2D51213EB12054A
:1013D500D9E4C39BFBE49AFAE499F9E498F880030D
:1013E5001205D930D50DE4C39FFFE49EFEE49DFDB3
:0413F500E49CFC2256
:0E04B100C3E49FFFE49EFEE49DFDE49CFC225C
:1004BF00BB010DE58229F582E5833AF583020684B7
:1004CF005007E92582F802066BBBFE07E92582F883
:0404DF000206B5223A
:0C04E300A42582F582E5F03583F5832224
:1004EF00BB011A89828A83D0F0D0E0F8D0E0F9D02E
:1004FF00E0FAD0E0FBE8C0E0C0F00206D75016E902
:10050F00F8D083D082D0E0F9D0E0FAD0E0FBC082FF
:10051F00C0830206CEBBFE16E9F8D083D082D0E0AE
:0F052F00F9D0E0FAD0E0FBC082C0830206E022E0
:10053E00BB0120E58229F582E5833AF583D0F0D020
:10054E00E0F8D0E0F9D0E0FAD0E0FBE8C0E0C0F08F
:10055E000206D75018E92582F8D083D082D0E0F970
:10056E00D0E0FAD0E0FBC082C0830206CEBBFE18FC
:10057E00E92582F8D083D082D0E0F9D0E0FAD0E03D
:09058E00FBC082C0830206E022DA
:060597008A838982E473EF
:10059D0075F008758200EF2FFFEE33FECD33CDCC15
:1005AD0033CCC58233C5829BED9AEC99E582984098
:1005BD000CF582EE9BFEED9AFDEC99FC0FD5F0D675
:1005CD00E4CEFBE4CDFAE4CCF9A88222B800C1B99F
:1005DD000059BA002DEC8BF084CFCECDFCE5F0CBDD
:1005ED00F97818EF2FFFEE33FEED33FDEC33FCEB16
:1005FD0033FB10D703994004EB99FB0FD8E5E4F9D1
:10060D00FA227818EF2FFFEE33FEED33FDEC33FCBD
:10061D00C933C910D7059BE99A4007EC9BFCE99AB1
:10062D00F90FD8E0E4C9FAE4CCFB2275F010EF2FF6
:10063D00FFEE33FEED33FDCC33CCC833C810D707F6
:10064D009BEC9AE899400AED9BFDEC9AFCE899F831
:0E065D000FD5F0DAE4CDFBE4CCFAE4C8F922C4
:10066B00D083D082E493F608740193F60874029356
:09067B00F608740393F67404738D
:10068400A8828583F0D083D08212069B12069B1227
:10069400069B12069BE473E493A3C583C5F0C5834C
:1006A400C8C582C8F0A3C583C5F0C583C8C582C8C0
:0106B4002223
:1006B500D083D082E493F208740193F20874029314
:0906C500F208740393F27404734B
:0906CE00EBF608EAF608E9F62251
:0906D700EBF0A3EAF0A3E9F02224
:0906E000EBF208EAF208E9F2224B
:00000001FF
