:08000E0002080000020A0000D4
:101299007B007A00792E12104F7B007A00793D127B
:1012A90013077B007A00791C1211757510007511EE
:1012B90001750C00750D32751200751302750E005B
:1012C900750F1EE4F514F515FB7A00790C120575F6
:0212D90080FE95
:100E5C00E5156401451470560509E509700205088D
:100E6C00D3940AE508648094805008853082852FDD
:100E7C00838020D3E509940AE50864809480401AA5
:100E8C00D3E5099414E50864809480500D85338271
:100E9C008532837F017E00120435D3E5099414E575
:100EAC0008648094804065E4F508F509805EE515DA
:100EBC00640245147056D3E50B940AE50A648094D9
:100ECC00805008853082852F838020D3E50B940ACF
:100EDC00E50A64809480401AD3E50B9414E50A6407
:100EEC00809480500D8533828532837F037E00127F
:100EFC000435D3E50B9414E50A648094804005E432
:100F0C00F50AF50B050BE50B7002050AE4F514F573
:010F1C0015BF
:010F1D0022B1
:0C1389007F017E8E7D02DDFEDEFADFF6C5
:011395002235
:10136400AB07AA06EB1BAE0270011A4E60051213FE
:041374008980F12259
:10132F00D3EF9400EE940040147D6E7C00ED1D70A1
:0D133F00011CED4C70F7EF1F70E61E80E3FF
:01134C00227E
:04001600024800009C
:10104F008B418A4289437BFF7A1179C5C003C00265
:10105F00C001AB41AA42A9431203897BFF7A1279DF
:10106F000DC003C002C001AB41AA42A943900003C7
:10107F001203D87BFF7A0C792FC003C002C001ABDB
:10108F0041AA42A9439000061203D87BFF7A087940
:10109F0055C003C002C001AB41AA42A94390000949
:1010AF001203D87BFF7A137978C003C002C001AB5B
:0E10BF0041AA42A94390000C1203D8021378F4
:1011C500EE7044EF14B40800503D9011DD75F00346
:1011D500A4C58325F0C583730211F50211F8021128
:1011E500FB0211FE02120102120402120702120A88
:1011F500C29022C29122C29222C29322C29422C2DA
:081205009522C29622C2972235
:10120D00EE7044EF14B40800503D90122575F003B4
:10121D00A4C58325F0C5837302123D02124002124C
:10122D004302124602124902124C02124F0212528E
:10123D00D29022D29122D29222D29322D29422D231
:08124D009522D29622D29722CD
:100C2F00154A154AA84AA60208A603154A154AA846
:100C3F004AA60408A605154A154AA84AA60608A6F4
:010C4F00079D
:100C5000A84AE6FE08E6FFEE704BEF14B408005019
:100C600044900C6F75F003A4C58325F0C58373020F
:100C70000C87020C8B020C8F020C93020C97020C57
:100C80009B020C9F020CA3C290801AC2918016C2D4
:100C9000928012C293800EC294800AC2958006C2CE
:100CA000968002C297A84A0808E6FE08E6FF1213DB
:100CB00064A84AE6FE08E6FFEE704BEF14B40800A5
:100CC0005044900CD075F003A4C58325F0C5837300
:100CD000020CE8020CEC020CF0020CF4020CF8021C
:100CE0000CFC020D00020D04D290801AD2918016E5
:100CF000D2928012D293800ED294800AD29580062E
:100D0000D2968002D297A84A0808E6FE08E6FF12AB
:100D100013640549E54970020548AC48FDA84A0836
:100D200008E6FE08E6FF120297E54A2404F8E6FC0E
:100D300008E6FDC3EF9DEC6480F8EE6480985003F4
:0A0D4000020C50ED4C7003020C5041
:070D4A00E54A2406F54A22E8
:10085500154A154AA84AA60408A605154A154A15B3
:100865004AA84AA60308A60208A601E54A24ECF50B
:010875004A38
:10087600F8E4F608F6A84A0808F608F6E54A240455
:10088600F8E4F608F6E54A2406F8E4F608F6E54A3A
:100896002408F8E4F608F6E54A240AF8E4F608F629
:1008A600E54A240CF8E4F608F6E54A240EF8E4F6E0
:1008B60008F6E54A2410F8E4F608F6E54A2412F8A4
:1008C600E4F608F6A84AF608F6A84AE6FE08E6FFA1
:1008D600C39408EE6480948040030209B0EF25E0DB
:1008E600FFEE33FEE54A2414F8860308E6FA08E626
:1008F600F98F828E8312030AFFE5F060030209A4D2
:10090600EF14B4080040030209A490091E75F00311
:10091600A4C58325F0C5837302093602094402097A
:100926005202096002096E02097C02098A020998CC
:10093600E54A2404F80806E6187063068060E54A6E
:100946002406F80806E6187055068052E54A24087B
:10095600F80806E6187047068044E54A240AF808AF
:1009660006E6187039068036E54A240CF80806E6CD
:1009760018702B068028E54A240EF80806E618703B
:100986001D06801AE54A2410F80806E618700F06B8
:10099600800CE54A2412F80806E618700106A84AF3
:1009A6000806E6187001060208CFE54A2404F9098C
:1009B600E719476002C290E54A2406F909E7194794
:1009C6006002C291E54A2408F909E719476002C2A4
:1009D60092E54A240AF909E719476002C293E54AF3
:1009E600240CF909E719476002C294E54A240EF976
:1009F60009E719476002C295E54A2410F909E71983
:100A0600476002C296E54A2412F909E719476002CF
:100A1600C297E54A2417F8E6FE08E6FF121364E5D6
:100A26004A2404F909E719476002D290E54A2406E8
:100A3600F909E719476002D291E54A2408F909E75E
:100A460019476002D292E54A240AF909E719476074
:100A560002D293E54A240CF909E719476002D294B9
:100A6600E54A240EF909E719476002D295E54A24BA
:100A760010F909E719476002D296E54A2412F909E6
:100A8600E719476002D297E54A2417F8E6FE08E61A
:100A9600FF121364A84A08080806E618700106A89B
:100AA6004A0808E6FC08E6FDE54A2417F8E6FE08CB
:100AB600E6FF120297E54A2419F8E6FC08E6FDC3AC
:100AC600EF9DEC6480F8EE64809850030209B0ED67
:060AD6004C70030209B0A0
:070ADC00E54A241BF54A2244
:10137800D290D291D292D293D294D295D296D29739
:011388002242
:101307008B418A4289437BFF7A0D7951C003C00222
:10131700C001AB41AA42A943120389AB41AA42A922
:0813270043900003E40202758B
:100D5100E4F544F545F546F54775B0FF20B4117F3C
:100D61000AFE12136420B40830B4FD7E007F022213
:100D710020B5127F0A7E0012136420B50830B5FD3C
:100D81007E007F032220B6127F0A7E0012136420A8
:100D9100B60830B6FD7E007F042220B7127F0A7E9E
:100DA1000012136420B70830B7FD7E007F0522755D
:100DB100B00FE5B0640F7003020E577F0A7E001278
:100DC1001364E5B0640F606A75B00FAFB0EF24F93A
:100DD100602324FC601724FE600B14701E75440010
:100DE100754506801675440075450A800E754400E8
:100DF10075450E800675440075451275B0F0AFB0AB
:100E0100EF2490602224C0601A24E0600C24F0706A
:100E11002185444485454580190545E545701305FF
:100E210044800F7402800274032545F545E435447E
:100E3100F544C3E5479464E546648094805017E522
:100E4100B064F060117F017E001213640547E5472D
:0A0E510070E0054680DCAE44AF45BA
:010E5B002274
:10134D003F065B4F666D7D077F6F777C395E7971E8
:07135D00FFFEFDFBF7EFDFCF
:061175008B418A42894310
:10117B00E4FFAB41AA42A94390000675F002EF12BF
:10118B00037DE4F5F01203420FBF06E67BFF7A12F4
:10119B0079DBC003C002C001AB41AA42A9431203D1
:1011AB00897BFF7A0F791EC003C002C001AB41AA35
:0911BB0042A9439000031203D87D
:0111C4002208
:1012DB00D2A6744D2DF58274133CF583E493F580FF
:1012EB00C2A690135DE493F580D2A7745D2FF582AF
:0C12FB0074133EF583E493F580C2A72233
:100F1E00154A154A154AA84AA60308A60208A601AC
:100F2E00154A154AA84AA60408A605154A154AA840
:0A0F3E004AA60608A607154A154A40
:100F4800A84A7600087601A84A0808E6FE08E6FFDF
:100F5800A84AA60608A607E54A2404F9A84AE6FE10
:100F680008E6FFD3099719E76480F8EE6480985083
:100F780043C006C007EF24FFFDEE34FFFCED25E07B
:100F8800FDEC33FCE54A2406F8860308E6FA08E691
:100F9800F98D828C8312030AFDACF0D007D00612BB
:100FA80012DB7F017E00121364A84A0806E6187057
:040FB800A60680A366
:070FBC00E54A2409F54A2271
:100575008B418A4289437BFF7A0E795CC003C002B6
:10058500C001AB41AA42A94390000A1203D87BFFE0
:100595007A0A79E3C003C002C001AB41AA42A9436C
:1005A50090000D1203D8AB41AA42A9439000041252
:1005B500030A640145F06003020655900006120324
:1005C5000A45F060030206557589011202DFFDAC8C
:1005D500F07E037FE81202A9AB07AA06EA3395E08D
:1005E500F9F87F007E107D0E7C00121255C3E49F42
:1005F500FFE49EFE74019DFDE49CFCE4FB7A01F999
:10060500F81212558F8CAB41AA42A9431202DFFDA5
:10061500ACF07E037FE81202A9AB07AA06EA339580
:10062500E0F9F87F007E107D0E7C00121255C3E4C0
:100635009FFFE49EFE74019DFDE49CFCE4FB7A01B2
:10064500F9F8121255AF038F8AD2AFD2A9D28C22F4
:10065500AB41AA42A94390000412030A45F0600386
:1006650002070590000612030A640245F0600302C2
:10067500070575891090000212030AFDACF07E0390
:100685007FE81202A9AB07AA06EA3395E0F9F87FDD
:10069500007E107D0E7C00121255C3E49FFFE49E80
:1006A500FE74019DFDE49CFCE4FB7A01F9F812124D
:1006B500558F8DAB41AA42A94390000212030AFD52
:1006C500ACF07E037FE81202A9AB07AA06EA3395D0
:1006D500E0F9F87F007E107D0E7C00121255C3E410
:1006E5009FFFE49EFE74019DFDE49CFCE4FB7A0102
:1006F500F9F8121255AF038F8BD2AFD2ABD28E223F
:10070500AB41AA42A94390000412030A640145F0D3
:10071500600302085490000612030A640245F06063
:1007250003020854C2AF75891190000212030AFD35
:10073500ACF07E037FE81202A9AB07AA06EA33955F
:10074500E0F9F87F007E107D0E7C00121255C3E49F
:100755009FFFE49EFE74019DFDE49CFCE4FB7A0191
:10076500F9F81212558F8DAB41AA42A943900002A8
:1007750012030AFDACF07E037FE81202A9AB07AABB
:1007850006EA3395E0F9F87F007E107D0E7C0012B5
:100795001255C3E49FFFE49EFE74019DFDE49CFC9D
:1007A500E4FB7A01F9F8121255AF038F8BD2ABD265
:1007B5008EAB41AA42A9431202DFFDACF0EC120157
:1007C500BBA804A905AA06AB07E4FFFE7D7A7C4415
:1007D500120119A804A905AA06AB07E4FFFE7D616D
:1007E5007C49120119A804A905AA06AB07E4FFFE76
:1007F5007D807C47120021E4FBFA79807843120161
:10080500191201F48F8CAB41AA42A9431202DFFDF4
:10081500ACF07E037FE81202A9AB07AA06EA33957E
:10082500E0F9F87F007E107D0E7C00121255C3E4BE
:100835009FFFE49EFE74019DFDE49CFCE4FB7A01B0
:10084500F9F8121255AF038F8AD2A9D28CD2AF22F2
:100AE3008B448A45894690000412030A640145F049
:100AF3006003020B8690000812030A640145F0604C
:100B030003020B861202DFFDACF07E037FE81202C4
:100B1300A9AB07AA06EA3395E0F9F87F007E107DBA
:100B23000E7C00121255C3E49FFFE49EFE74019DE8
:100B3300FDE49CFCE4FB7A01F9F81212558F8CABAF
:100B430044AA45A9461202DFFDACF07E037FE812FA
:100B530002A9AB07AA06EA3395E0F9F87F007E10F5
:100B63007D0E7C00121255C3E49FFFE49EFE7401C8
:100B73009DFDE49CFCE4FB7A01F9F8121255AF03E6
:100B83008F8A22AB44AA45A94690000612030A6441
:100B93000245F06003020C2E90000812030A64025F
:100BA30045F06003020C2E90000212030AFDACF024
:100BB3007E037FE81202A9AB07AA06EA3395E0F9A0
:100BC300F87F007E107D0E7C00121255C3E49FFF58
:100BD300E49EFE74019DFDE49CFCE4FB7A01F9F8BC
:100BE3001212558F8DAB44AA45A9469000021203F9
:100BF3000AFDACF07E037FE81202A9AB07AA06EA5E
:100C03003395E0F9F87F007E107D0E7C00121255BB
:100C1300C3E49FFFE49EFE74019DFDE49CFCE4FBA2
:0C0C23007A01F9F8121255AF038F8B22F2
:03000B000210CD13
:1010CD00C0E0C0F0C083C082C0D075D000C000C0E9
:1010DD0001C002C003C004C005C006C007751400DE
:1010ED007515017B007A00790C851B82851A831298
:1010FD000435AA17A918120431D007D006D005D08F
:10110D0004D003D002D001D000D0D0D082D083D073
:04111D00F0D0E032FC
:03001B00021121AE
:10112100C0E0C0F0C083C082C0D075D000C000C094
:1011310001C002C003C004C005C006C00775140089
:101141007515027B007A00790C851B82851A831242
:101151000435AA17A918120431D007D006D005D03A
:1011610004D003D002D001D000D0D0D082D083D01F
:04117100F0D0E032A8
:10001E00020260E86480F8E933E83360110460F0AE
:10002E00ED33EC337009E8FCE9FDEAFEEBFF220448
:10003E0060DED3EB9FEA9EE99DE8C2E78CF0C2F743
:10004E0095F0400CE8CCF8E9CDF9EACEFAEBCFFB0F
:10005E0012022B85D0F05804700320D5B3E804703B
:10006E00075002B2D502026A92D5EC0460F7E4CCD6
:10007E00C0E0C398F8603B94186008400DD0E0FBD8
:10008E00020242E4FBFAC9FC8028E830E406E4C927
:10009E00FBE4CAFCE830E305E4C9CACBFCE854072C
:1000AE006010F8C3E913F9EA13FAEB13FBEC13FC37
:1000BE00D8F130F52FC3E49CFCEF9BFFEE9AFEEDDA
:1000CE0099FDD0E0FBEF4E4D4C701222DB03020285
:1000DE0067EC2CFCEF33FFEE33FEED33FDED30E736
:1000EE00EB020242EF2BFFEE3AFEED39FDD0E0FBC4
:1000FE0050130BBB000302026AED13FDEE13FEEF6D
:08010E0013FFEC13FC02024296
:1001160002026AEC5D046005E8590470030202609D
:1001260012022B580460F6EC4860F2EC7004FDFEF7
:10013600FF22C860DB2481C85009C39860025006BC
:100146000202679850CAF582E9294B4A7005AB82CC
:1001560002025675F0007C1A7880C3EF9BEE9AED8A
:1001660099400DC3EF9BFFEE9AFEED99FDE842F034
:10017600DC23ACF0D0E0FFD0E0FED0E0FDAB822087
:10018600E7101BEB60BAEC2CFCEF33FFEE33FEED11
:1001960033FD020242E803F830E705C0F075F000CF
:1001A600EF2FFFEE33FEED33FD40B830E7C280AAF5
:1001B60075F020800E75F010800575F0087D007EC4
:1001C600007F003392D530D50312036FEC33401015
:1001D600EF33FFEE33FEED33FDEC33FCD5F0ED22CD
:0E01E600E5F0247EA2D513CC92E7CDCEFF2209
:1001F400EDD2E7CD33EC3392D524814006E4FFFE03
:10020400FDFC22FCE4CFCECDCC24E0501174FF8061
:10021400EDC3CC13CCCD13CDCE13CECF13CF0470FE
:07022400F030D5DE02036F8C
:10022B00E9D2E7C933E833F892D5EDD2E7CD33EC19
:07023B0033FC5002B2D52292
:10024200EC30E7100FBF000C0EBE00080DBD00041D
:100252000BEB6014A2D5EB13FCED92E7FD2274FFC9
:10026200FCFDFEFF22E480F8A2D574FF13FC7D8022
:03027200E480EF36
:03000000020FC329
:0C0FC300787FE4F6D8FD75814A02100A20
:10027500F8BB010DE58229F582E5833AF583E8F0BF
:10028500225006E92582C8F622BBFE05E92582C86B
:02029500F22253
:10029700EF8DF0A4A8F0CF8CF0A428CE8DF0A42E7B
:0202A700FE2235
:1002A900C2D5EC30E709B2D5E4C39DFDE49CFCEE70
:1002B90030E715B2D5E4C39FFFE49EFE120437C3AD
:1002C900E49DFDE49CFC800312043730D507C3E4A8
:0602D9009FFFE49EFE22DF
:1002DF00BB010A89828A83E0F5F0A3E022500687EA
:1002EF00F009E71922BBFE07E3F5F009E3192289AC
:0B02FF00828A83E493F5F074019322DF
:10030A00BB0110E58229F582E5833AF583E0F5F031
:10031A00A3E0225009E92582F886F008E622BBFE0E
:10032A000AE92582F8E2F5F008E222E5832AF58354
:08033A00E993F5F0A3E9932219
:10034200F8BB0111E58229F582E5833AF583E8F0ED
:10035200E5F0A3F0225009E92582C8F608A6F022AA
:0D036200BBFE09E92582C8F2E5F008F22291
:10125500C2D5E830E70FB2D5E4C39BFBE49AFAE4C4
:1012650099F9E498F8EC30E717B2D512128B12040D
:10127500C8E4C39BFBE49AFAE499F9E498F880037F
:101285001204C830D50DE4C39FFFE49EFEE49DFD26
:04129500E49CFC22B7
:0E036F00C3E49FFFE49EFEE49DFDE49CFC229F
:0C037D00A42582F582E5F03583F583228B
:10038900BB011A89828A83D0F0D0E0F8D0E0F9D095
:10039900E0FAD0E0FBE8C0E0C0F00205635016E9DE
:1003A900F8D083D082D0E0F9D0E0FAD0E0FBC08267
:1003B900C08302055ABBFE16E9F8D083D082D0E08B
:0F03C900F9D0E0FAD0E0FBC082C08302056C22BD
:1003D800BB0120E58229F582E5833AF583D0F0D088
:1003E800E0F8D0E0F9D0E0FAD0E0FBE8C0E0C0F0F7
:1003F8000205635018E92582F8D083D082D0E0F94D
:10040800D0E0FAD0E0FBC082C08302055ABBFE18D8
:10041800E92582F8D083D082D0E0F9D0E0FAD0E0A4
:09042800FBC082C08302056C22B6
:060431008A838982E47356
:100FCF00021299E493A3F8E493A34003F68001F28D
:100FDF0008DFF48029E493A3F85407240CC8C33323
:100FEF00C4540F4420C8834004F456800146F6DFF2
:100FFF00E4800B010204081020408090000EE47E74
:10100F00019360BCA3FF543F30E509541FFEE493E6
:10101F00A360010ECF54C025E060A840B8E493A3AD
:10102F00FAE493A3F8E493A3C8C582C8CAC583CAD8
:10103F00F0A3C8C582C8CAC583CADFE9DEE780BE90
:01001A0000E5
:10043700BC000BBE0029EF8DF084FFADF022E4CCA9
:10044700F875F008EF2FFFEE33FEEC33FCEE9DEC72
:10045700984005FCEE9DFE0FD5F0E9E4CEFD22EDB8
:10046700F8F5F0EE8420D21CFEADF075F008EF2F02
:10047700FFED33FD4007985006D5F0F222C398FDF3
:050487000FD5F0EA2290
:10048C0075F008758200EF2FFFEE33FECD33CDCC27
:10049C0033CCC58233C5829BED9AEC99E5829840AA
:1004AC000CF582EE9BFEED9AFDEC99FC0FD5F0D687
:1004BC00E4CEFBE4CDFAE4CCF9A88222B800C1B9B1
:1004CC000059BA002DEC8BF084CFCECDFCE5F0CBEF
:1004DC00F97818EF2FFFEE33FEED33FDEC33FCEB28
:1004EC0033FB10D703994004EB99FB0FD8E5E4F9E3
:1004FC00FA227818EF2FFFEE33FEED33FDEC33FCD0
:10050C00C933C910D7059BE99A4007EC9BFCE99AC3
:10051C00F90FD8E0E4C9FAE4CCFB2275F010EF2F08
:10052C00FFEE33FEED33FDCC33CCC833C810D70708
:10053C009BEC9AE899400AED9BFDEC9AFCE899F843
:0E054C000FD5F0DAE4CDFBE4CCFAE4C8F922D6
:09055A00EBF608EAF608E9F622C6
:09056300EBF0A3EAF0A3E9F02299
:09056C00EBF208EAF208E9F222C0
:00000001FF
