:03000000020AAC45
:0C0AAC00787FE4F6D8FD75810802000395
:100A4400000100020003000400050006000700087E
:100A54000001000000030000000500000007000082
:100A6400000000020000000400000006000000086E
:060A7400FE0025FE003526
:1000030078157C007DFE7BFF7A0A79447E007F10A1
:100013001206AB78257C007DFE7BFF7A0A79547E3D
:10002300007F101206AB78357C007DFE7BFF7A0AD9
:1000330079647E007F101206AB78457C007DFE7BE1
:10004300FF7A0A79747E007F061206AB7BFE7A0084
:10005300790012091E780FE4F20804F2780FE2FE29
:1000630008E2FFD39408EE6480948050227800085D
:10007300E2FA08E2F5828A831207C77FC87E00127C
:100083000A7A7810E22401F218E23400F280CD7883
:100093000C08E2FA08E2F91207C37FD07E07120ABE
:1000A3007A780FE4F2087408F2780FE2FE08E2FFB0
:1000B300C39401EE648094804022780008E2FA0839
:1000C300E2F5828A831207C77FC87E00120A7A7814
:1000D30010E224FFF218E234FFF280CD780C08E23C
:1000E300FA08E2F91207C37FD07E07120A7AE4788E
:1000F3000FF208F27811E4F2087404F208E4F2084B
:100103007405F27811E2FE08E2FFC39401EE648005
:1001130094804042780008E2FA08E2F5828A83126A
:1001230007C77813E2FE08E2FF780008E2FA08E264
:10013300F5828A831207C77FC87E00120A7A781273
:10014300E224FFF218E234FFF27814E22401F218F9
:10015300E23400F280AD780C08E2FA08E2F9120703
:10016300C37810E22401F218E23400F2D308E294D7
:100173000218E26480948050030200F77FD07E0768
:10018300120A7AE4780FF208F27811E4F20804F222
:1001930008E4F2087408F27811E2FE08E2FFD3944F
:1001A30004EE648094805042780008E2FA08E2F595
:1001B300828A831207C77813E2FE08E2FF780008F9
:1001C300E2FA08E2F5828A831207C77FC87E00122B
:1001D3000A7A7812E22401F218E23400F27814E287
:1001E30024FFF218E234FFF280AD780C08E2FA083B
:1001F300E2F91207C37810E22401F218E23400F2A4
:10020300D308E2940218E264809480500302018CC4
:100213007FD07E07120A7AE4780FF208F2150815E8
:1002230008A8087401F2087490F27C007DC87BFE74
:100233007A007915C002780908E2FA08E2F5828AA1
:1002430083D0021207C77810E22401F218E23400C7
:10025300F2D308E2940218E26480948040BF780CE1
:1002630008E2FA08E2F91207C37FD07E07120A7A7E
:10027300780FE4F20804F2780FE2FE08E2FFD39469
:1002830008EE6480948050317C007DC81206D1AAA8
:1002930006AB07C002780FE2FE08E2FF780608E229
:1002A300FA08E2F5828A83D0021207C77810E224A3
:1002B30001F218E23400F280BE780C08E2FA08E298
:1002C300F91207C37FD07E07120A7AE4780FF20887
:1002D300F2E47811F208F27811E2FE08E2FFD39417
:1002E30001EE64809480504015081508A808740135
:1002F300F2087490F27C007DC8EF75F003A42445E6
:10030300F8E2FB08E2FA08E2F9C002780908E2FA27
:1003130008E2F5828A83D0021207C77812E2240129
:10032300F218E23400F280AF780C08E2FA08E2F93E
:100333001207C37810E22401F218E23400F2D30862
:10034300E2940218E2648094804086780C08E2FA12
:1003530008E2F91207C37FD07E07120A7A02005817
:0C0A9F007F017E8E7D02DDFEDEFADFF6B8
:010AAB002228
:100A7A00AB07AA06EB1BAE0270011A4E6005120AFA
:040A8A009F80F12236
:10091E00784BEBF208EAF208E9F27BFF7A0979B438
:10092E00C003C002C001784BE2FB08E2FA08E2F90C
:10093E0012071B7BFF7A0979FCC003C002C0017845
:10094E004BE2FB08E2FA08E2F990000312076A7B19
:10095E00FF7A0779E4C003C002C001784BE2FB08BE
:10096E00E2FA08E2F990000612076A7BFF7A037931
:10097E0063C003C002C001784BE2FB08E2FA08E252
:10098E00F990000912076A7BFF7A0A798EC003C0BC
:10099E0002C001784BE2FB08E2FA08E2F990000C83
:0609AE0012076A020A8E26
:1009B400EE7044EF14B40800503D9009CC75F00378
:1009C400A4C58325F0C583730209E40209E702097B
:1009D400EA0209ED0209F00209F30209F60209F933
:1009E400C29022C29122C29222C29322C29422C2F3
:0809F4009522C29622C297224F
:1009FC00EE7044EF14B40800503D900A1475F003E7
:100A0C00A4C58325F0C58373020A2C020A2F020A9F
:100A1C0032020A35020A38020A3B020A3E020A4135
:100A2C00D29022D29122D29222D29322D29422D24A
:080A3C009522D29622D29722E6
:1007E40015081508A808EAF208EBF215081508A878
:1007F40008ECF208EDF215081508A808EEF208EF67
:05080400F215081508C3
:10080900A808E4F208F2A8080808E2FE08E2FFEEE8
:10081900704BEF14B40800504490083075F003A4ED
:10082900C58325F0C5837302084802084C020850A5
:1008390002085402085802085C020860020864C2EF
:1008490090801AC2918016C2928012C293800EC201
:1008590094800AC2958006C2968002C297E5082450
:1008690004F8E2FE08E2FF120A7AA8080808E2FE84
:1008790008E2FFEE704BEF14B4080050449008945E
:1008890075F003A4C58325F0C583730208AC02087B
:10089900B00208B40208B80208BC0208C00208C4C1
:1008A9000208C8D290801AD2918016D2928012D2B0
:1008B90093800ED294800AD2958006D2968002D275
:1008C90097E5082404F8E2FE08E2FF120A7AA8086C
:1008D90008E22401F218E23400F2A808E2FC08E276
:1008E900FDE5082404F8E2FE08E2FF1206D1E50856
:1008F9002406F8E2FC08E2FDD39FEE6480F8EC647C
:0E0909008098400302080FED4C700302080FA7
:07091700E5082408F50822A1
:1003630015081508A808ECF208EDF215081508158C
:1003730008A808EBF208EAF208E9F2E50824ECF52C
:010383000871
:10038400F8E4F208F2A8080808F208F2E5082404E0
:10039400F8E4F208F2E5082406F8E4F208F2E508C5
:1003A4002408F8E4F208F2E508240AF8E4F208F272
:1003B400E508240CF8E4F208F2E508240EF8E4F267
:1003C40008F2E5082410F8E4F208F2E5082412F82B
:1003D400E4F208F2A808F208F2A808E2FE08E2FF34
:1003E400C39408EE648094804003020486EF25E001
:1003F400FFEE33FEE5082414F8E2FB08E2FA08E213
:10040400F98F828E831206E3FFE5F07066EF14B471
:100414000800505F90042675F003A4C58325F0C539
:10042400837302043E02044402044A020450020498
:100434005602045C020462020468E508240480286D
:10044400E50824068022E5082408801CE508240A1F
:100454008016E508240C8010E508240E800AE508BF
:1004640024108004E5082412F808E22401F218E2BA
:100474003400F2A80808E22401F218E23400F2027F
:1004840003DDE5082404F909E3700219E36002C2FC
:1004940090E5082406F909E3700219E36002C291A9
:1004A400E5082408F909E3700219E36002C292E541
:1004B40008240AF909E3700219E36002C293E5080B
:1004C400240CF909E3700219E36002C294E50824DC
:1004D4000EF909E3700219E36002C295E5082410DD
:1004E400F909E3700219E36002C296E5082412F9DF
:1004F40009E3700219E36002C297E5082417F8E2E1
:10050400FE08E2FF120A7AE5082404F909E37002FE
:1005140019E36002D290E5082406F909E370021990
:10052400E36002D291E5082408F909E3700219E3B3
:100534006002D292E508240AF909E3700219E36023
:1005440002D293E508240CF909E3700219E360026E
:10055400D294E508240EF909E3700219E36002D28B
:1005640095E5082410F909E3700219E36002D296B4
:10057400E5082412F909E3700219E36002D297E551
:10058400082417F8E2FE08E2FF120A7AA80808080D
:1005940008E22401F218E23400F2A8080808E2FC98
:1005A40008E2FDE5082417F8E2FE08E2FF1206D18E
:1005B400E5082419F8E2FC08E2FDD39FEE6480F814
:1005C400EC6480984003020486ED4C7003020486B8
:0705D400E508241BF50822D5
:100A8E00D290D291D292D293D294D295D296D2972C
:010A9E002235
:1005DB00E709F608DFFA8046E709F208DFFA803E02
:1005EB0088828C83E709F0A3DFFA8032E309F608EF
:1005FB00DFFA8078E309F208DFFA807088828C8357
:10060B00E309F0A3DFFA806489828A83E0A3F6080A
:10061B00DFFA805889828A83E0A3F208DFFA804CE4
:10062B0080D280FA80C680D4806980F280338010BB
:10063B0080A680EA809A80A880DA80E280CA803324
:10064B0089828A83ECFAE493A3C8C582C8CCC5839C
:10065B00CCF0A3C8C582C8CCC583CCDFE9DEE7806C
:10066B000D89828A83E493A3F608DFF9ECFAA9F0EB
:10067B00EDFB2289828A83ECFAE0A3C8C582C8CC41
:10068B00C583CCF0A3C8C582C8CCC583CCDFEADE5A
:10069B00E880DB89828A83E493A3F208DFF980CCBC
:1006AB0088F0EF60010E4E60C388F0ED2402B404B5
:1006BB000050B9F582EB2402B4040050AF2323455C
:0606CB00822390062B7350
:1006D100EF8DF0A4A8F0CF8CF0A428CE8DF0A42E3D
:0206E100FE22F7
:1006E300BB0110E58229F582E5833AF583E0F5F055
:1006F300A3E0225009E92582F886F008E622BBFE32
:100703000AE92582F8E2F5F008E222E5832AF58377
:08071300E993F5F0A3E993223C
:10071B00BB011A89828A83D0F0D0E0F8D0E0F9D0FF
:10072B00E0FAD0E0FBE8C0E0C0F00207D25016E9D7
:10073B00F8D083D082D0E0F9D0E0FAD0E0FBC082D1
:10074B00C0830207C9BBFE16E9F8D083D082D0E084
:0F075B00F9D0E0FAD0E0FBC082C0830207DB22B6
:10076A00BB0120E58229F582E5833AF583D0F0D0F2
:10077A00E0F8D0E0F9D0E0FAD0E0FBE8C0E0C0F061
:10078A000207D25018E92582F8D083D082D0E0F946
:10079A00D0E0FAD0E0FBC082C0830207C9BBFE18D2
:1007AA00E92582F8D083D082D0E0F9D0E0FAD0E00F
:0907BA00FBC082C0830207DB22B0
:0607C3008A838982E473C1
:0907C900EBF608EAF608E9F62255
:0907D200EBF0A3EAF0A3E9F02228
:0907DB00EBF208EAF208E9F2224F
:00000001FF
